:02000002B0004C
:1040000000400B0092760B00000006000C00050239
:08401000040188130000000008
:0440180088700B00A1
:1040200081F0004102E000BF83F0004330B54FEA69
:1040300041044FEA430594EA050F08BF90EA020FD6
:104040001FBF54EA000C55EA020C7FEA645C7FEA69
:10405000655C00F0E2804FEA5454D4EB5555B8BF8C
:104060006D420CDD2C4480EA020281EA030382EAFD
:10407000000083EA010180EA020281EA0303362D8F
:1040800088BF30BD11F0004F4FEA01314FF4801C62
:104090004CEA113102D0404261EB410113F0004F74
:1040A0004FEA03334CEA133302D0524263EB43032B
:1040B00094EA050F00F0A780A4F10104D5F1200EC9
:1040C0000DDB02FA0EFC22FA05F2801841F1000124
:1040D00003FA0EF2801843FA05F359410EE0A5F1F8
:1040E00020050EF1200E012A03FA0EFC28BF4CF029
:1040F000020C43FA05F3C01851EBE37101F00045DF
:1041000007D54FF0000EDCF1000C7EEB00006EEBEB
:104110000101B1F5801F1BD3B1F5001F0CD3490875
:104120005FEA30004FEA3C0C04F101044FEA4452CC
:1041300012F5800F80F09A80BCF1004F08BF5FEA53
:10414000500C50F1000041EB045141EA050130BD33
:104150005FEA4C0C404141EB0101013C28BFB1F545
:10416000801FE9D291F0000F04BF01460020B1FA90
:1041700081F308BF2033A3F10B03B3F120020CDA63
:104180000C3208DD02F1140CC2F10C0201FA0CF041
:1041900021FA02F10CE002F11402D8BFC2F1200CA6
:1041A00001FA02F120FA0CFCDCBF41EA0C0190405C
:1041B000E41AA2BF01EB0451294330BD6FEA0404A5
:1041C0001F3C1CDA0C340EDC04F11404C4F1200290
:1041D00020FA04F001FA02F340EA030021FA04F3A2
:1041E00045EA030130BDC4F10C04C4F1200220FAF9
:1041F00002F001FA04F340EA0300294630BD21FA37
:1042000004F0294630BD94F0000F83F4801306BFFC
:1042100081F480110134013D4EE77FEA645C18BFF0
:104220007FEA655C29D094EA050F08BF90EA020F87
:1042300005D054EA000C04BF1946104630BD91EA7F
:10424000030F1EBF0021002030BD5FEA545C05D182
:104250004000494128BF41F0004130BD14F58004C1
:104260003CBF01F5801130BD01F0004545F0FE4135
:1042700041F470014FF0000030BD7FEA645C1ABF6A
:10428000194610467FEA655C1CBF0B46024650EAA1
:10429000013406BF52EA033591EA030F41F40021CD
:1042A00030BD00BF90F0000F04BF0021704730B553
:1042B0004FF4806404F132044FF000054FF0000128
:1042C00050E700BF90F0000F04BF0021704730B5E9
:1042D0004FF4806404F1320410F0004548BF4042BE
:1042E0004FF000013EE700BF42004FEAE2014FEA13
:1042F00031014FEA02701FBF12F07F4393F07F4FEE
:1043000081F06051704732F07F4208BF704793F0F0
:104310007F4F04BF41F40021704730B54FF4607403
:1043200001F0004521F000411CE700BF50EA010206
:1043300008BF704730B54FF000050AE050EA0102AF
:1043400008BF704730B511F0004502D5404261EB1F
:1043500041014FF4806404F132045FEA915C3FF460
:10436000D8AE4FF003025FEADC0C18BF03325FEAFD
:10437000DC0C18BF033202EBDC02C2F1200300FAAE
:1043800003FC20FA02F001FA03FE40EA0E0021FAD3
:1043900002F11444BDE600BF70B54FF0FF0C4CF4C1
:1043A000E06C1CEA11541DBF1CEA135594EA0C0F73
:1043B00095EA0C0F00F0DEF82C4481EA030621EAAE
:1043C0004C5123EA4C5350EA013518BF52EA0335E9
:1043D00041F4801143F4801338D0A0FB02CE4FF09B
:1043E0000005E1FB02E506F00042E0FB03E54FF0CB
:1043F0000006E1FB03569CF0000F18BF4EF0010EC3
:10440000A4F1FF04B6F5007F64F5407404D25FEABE
:104410004E0E6D4146EB060642EAC62141EA555171
:104420004FEAC52040EA5E504FEACE2EB4F1FD0CB3
:1044300088BFBCF5E06F1ED8BEF1004F08BF5FEA31
:10444000500E50F1000041EB045170BD06F00046E3
:1044500046EA010140EA020081EA0301B4EB5C0490
:10446000C2BFD4EB0C0541EA045170BD41F4801188
:104470004FF0000E013C00F3AB8014F1360FDEBFAD
:10448000002001F0004170BDC4F10004203C35DA89
:104490000C341BDC04F11404C4F1200500FA05F30C
:1044A00020FA04F001FA05F240EA020001F00042AD
:1044B00021F0004110EBD37021FA04F642EB060123
:1044C0005EEA430E08BF20EAD37070BDC4F10C044D
:1044D000C4F1200500FA04F320FA05F001FA04F211
:1044E00040EA020001F0004110EBD37041F10001FD
:1044F0005EEA430E08BF20EAD37070BDC4F1200508
:1045000000FA05F24EEA020E20FA04F301FA05F26F
:1045100043EA020321FA04F001F0004121FA04F217
:1045200020EA020000EBD3705EEA430E08BF20EAE7
:10453000D37070BD94F0000F0FD101F00046400021
:1045400041EB010111F4801F08BF013CF7D041EAA3
:10455000060195F0000F18BF704703F000465200A7
:1045600043EB030313F4801F08BF013DF7D043EA78
:104570000603704794EA0C0F0CEA135518BF95EA2E
:104580000C0F0CD050EA410618BF52EA4306D1D1B5
:1045900081EA030101F000414FF0000070BD50EAD4
:1045A000410606BF1046194652EA430619D094EA5E
:1045B0000C0F02D150EA013613D195EA0C0F05D148
:1045C00052EA03361CBF104619460AD181EA03019C
:1045D00001F0004141F0FE4141F470014FF0000054
:1045E00070BD41F0FE4141F4780170BD70B54FF0EF
:1045F000FF0C4CF4E06C1CEA11541DBF1CEA13556F
:1046000094EA0C0F95EA0C0F00F0A7F8A4EB050450
:1046100081EA030E52EA03354FEA013100F0888047
:104620004FEA03334FF0805545EA131343EA126310
:104630004FEA022245EA111545EA10654FEA0026C5
:104640000EF000419D4208BF964244F1FD0404F57E
:10465000407402D25B084FEA3202B61A65EB0305DA
:104660005B084FEA32024FF480104FF4002CB6EB97
:10467000020E75EB030E22BFB61A754640EA0C0017
:104680005B084FEA3202B6EB020E75EB030E22BF57
:10469000B61A754640EA5C005B084FEA3202B6EB98
:1046A000020E75EB030E22BFB61A754640EA9C0057
:1046B0005B084FEA3202B6EB020E75EB030E22BF27
:1046C000B61A754640EADC0055EA060E18D04FEAE5
:1046D000051545EA16754FEA06164FEAC30343EA85
:1046E00052734FEAC2025FEA1C1CC0D111F4801F52
:1046F0000BD141EA00014FF000004FF0004CB6E74B
:1047000011F4801F04BF01430020B4F1FD0C88BFE9
:10471000BCF5E06F3FF6AFAEB5EB030C04BFB6EBF4
:10472000020C5FEA500C50F1000041EB045170BDE7
:104730000EF0004E4EEA113114EB5C04C2BFD4EB14
:104740000C0541EA045170BD41F480114FF0000E98
:10475000013C90E645EA060E8DE60CEA135594EA14
:104760000C0F08BF95EA0C0F3FF43BAF94EA0C0F17
:104770000AD150EA01347FF434AF95EA0C0F7FF48C
:1047800025AF104619462CE795EA0C0F06D152EAE0
:1047900003353FF4FDAE1046194622E750EA4106C4
:1047A00018BF52EA43067FF4C5AE50EA41047FF4D5
:1047B0000DAF52EA43057FF4EBAE12E74FF0FF3C3A
:1047C00006E000BF4FF0010C02E000BF4FF0010C0B
:1047D0004DF804CD4FEA410C7FEA6C5C4FEA430C84
:1047E00018BF7FEA6C5C1BD001B050EA410C0CBFD3
:1047F00052EA430C91EA030F02BF90EA020F002035
:10480000704710F1000F91EA030F58BF994208BF9B
:1048100090422CBFD8176FEAE37040F00100704758
:104820004FEA410C7FEA6C5C02D150EA013C07D1AF
:104830004FEA430C7FEA6C5CD6D152EA033CD3D0FA
:104840005DF8040B704700BF8446104662468C46F4
:104850001946634600E000BF01B5FFF7B7FF002827
:1048600048BF10F1000F01BD4DF808EDFFF7F4FF50
:104870000CBF012000205DF808FB00BF4DF808EDDB
:10488000FFF7EAFF34BF012000205DF808FB00BFFE
:104890004DF808EDFFF7E0FF94BF012000205DF820
:1048A00008FB00BF4DF808EDFFF7CEFF94BF0120D5
:1048B00000205DF808FB00BF4DF808EDFFF7C4FFCE
:1048C00034BF012000205DF808FB00BF4FEA410C17
:1048D0007FEA6C5C02D150EA013C0AD14FEA430CFA
:1048E0007FEA6C5C02D152EA033C02D14FF0000037
:1048F00070474FF00100704710F8012B11F8013B91
:10490000012A28BF9A42F7D0D01A7047034613F8FD
:10491000012B002AFBD1181A0138704709480A49AF
:10492000884208B505D0094A824202D0121A02F024
:10493000F1FA0748074A0021121A02F0F9FA014871
:1049400008BD00BF80E50320C4750B0020E60320EE
:1049500020E60320F0E7032070B5074E074C01F076
:10496000BFF8A41BA4080025AC4200D170BD56F8C6
:10497000043B98470135F7E77C750B00A0750B00E9
:1049800000F060B808B500F0EBF8BDE8084001F0B1
:104990005FB800F09BBC00F099BC00F09FBC000029
:1049A00008B5034A03490C2000F0E4FBFEE700BF12
:1049B000B54E0B009C700B000078B0FA80F04009F7
:1049C00070470123037070470EB403B503AB012198
:1049D00053F8042B019300F0EEFD02B05DF804EBF8
:1049E00003B0704710B54368013B0446436063B9A8
:1049F00003689B689847A368013BA3602BB92368B1
:104A00002046DB68BDE81040184710BD0022406812
:104A1000114600F0E3BB000010B5044B03600446F0
:104A2000806908B1FFF7DEFF204610BD30730B0030
:104A300010B50446FFF7F0FF20461C21FFF7ADFF3D
:104A4000204610BD30B53F4B8BB01888012101F0D6
:104A50001FFE3D48002319461A46406800F0C6FB79
:104A600001F060F94FF4165101F04CF9002000F00C
:104A700031FA43F698250446002000F02BFA001B7B
:104A800061F10001A84271F1000307D201F04AF977
:104A900001F03CF910B900F009FCEDE701F042F932
:104AA00001F034F901F03EF9284900F05CFD01F015
:104AB00039F904462448FFF7A9FF811C04A801F036
:104AC00089F804A9684600F0F5FC009A20492046C0
:104AD000FFF77AFF684600F093FC01F023F90446E3
:104AE0001948FFF793FF00F1130104A801F072F8D1
:104AF00004A9684600F0DEFC009A16492046FFF73C
:104B000063FF684600F07CFC01F00CF904460E4897
:104B1000FFF77CFF00F1240104A801F05BF804A971
:104B2000684600F0C7FC009A0B492046FFF74CFF8F
:104B3000684600F065FC09480BB0BDE8304000F065
:104B40007FBE00BF80E503200CE70320B1700B009F
:104B5000BB700B00C6700B00D4700B0080E6032006
:104B60002DE9F043884B8DB0188801F0BBFD874BD1
:104B70001860FFF7A7FB02460B467FA1D1E90001B1
:104B8000FFF734FD824B0022FFF74EFA814BD3E949
:104B90000023FFF701FC804B41EC100BC3E900013F
:104BA00001F046FF7D4B83ED000B55EC104B7C4B29
:104BB00010EE100AD3E900232946FFF7EDFB794BED
:104BC000D3E90023FFF732FA774B0646D3E90023F7
:104BD0000F4620462946FFF7DFFB22462B46FFF70C
:104BE000DBFB22462B46FFF7D7FB02460B4630463F
:104BF0003946FFF71BFA02460B46002064496B4E0C
:104C0000FFF7F4FC6A4B04460D46C3E900455CA37C
:104C1000D3E90023FFF708FA664B0D460446C3E9C3
:104C20000045654DD5E90023FFF700FA804630685E
:104C300089466328C5E9008974DDFFF743FB024616
:104C40000B4640464946FFF7D1FCC5E9000101F09B
:104C500069F8D5E900235949FFF7B6FE01F062F87B
:104C600004465748FFF7D2FE811C05A800F0B2FFAA
:104C700005A901A800F01EFC019A52492046524C99
:104C8000FFF7A2FE01A800F0BBFB002700220023D3
:104C9000208837600121C5E9002301F00AFDC82002
:104CA00000F0CCFC2088494C394601F002FD20463A
:104CB00001F073FB00283ED0204601F00BF90446BA
:104CC00001F030F8E2B24249FFF77EFE414A106837
:104CD000516805AB03C31189927A19809A702B78B9
:104CE0008DF814306B788DF81530AB788DF8163060
:104CF000EB788DF817303848ADF81F7041F28833E3
:104D00000E2205A98DF8217000F0BCFC044628B1E4
:104D100001F008F831492246FFF756FE4FF448707B
:104D200000F08CFC33680A20013333600DB0BDE81D
:104D3000F04300F083BC284905A800F003FE069B61
:104D40006360079BA360089BE360099B23610A9B48
:104D50000B9D6361A3699D4208D015B16B68013357
:104D60006B60A06908B1FFF73DFEA56105A8FFF7DC
:104D700053FED7E7AFF300800000000000FEAF4015
:104D8000666666666612714090E5032050E6032071
:104D90000000F03F88E5032020E6032078E60320AA
:104DA000A0E5032098E50320A8E5032070E6032092
:104DB00038E6032048E6032040E60320E1700B00BC
:104DC0000CE70320F8700B0080E5032054E6032075
:104DD00004710B0078700B0080E603201C710B003F
:104DE0000B4B0C4A10B50024C3E900449A60012023
:104DF00000F0D0F900F066F8074B22461860172142
:104E0000064800F0CDFCBDE81040054801F0FEBAB0
:104E100028E603200000FFFFB0E6032080E6032021
:104E200054E6032008B5024B1B689B68019308BD3C
:104E30006802030008B5024B1B68DB68019308BDDC
:104E40006802030008B5024B1B685B68019308BD4C
:104E50002C02030008B5024B1B689B68019308BD38
:104E60002C02030008B5024B1B68DB68019308BDE8
:104E70002C02030008B5024B1B681B69019308BD97
:104E80002C02030008B5024B1B681B6B019308BD85
:104E90002C02030008B5024B1B685B69019308BD37
:104EA0006C02030008B5024B1B685B68019308BDE8
:104EB0001802030008B5024B1B68DB68019308BDAC
:104EC0001802030008B5024B1B685B69019308BD1B
:104ED0001802030008B5024B1B68DB6D019308BD87
:104EE0001802030008B5024B1B68DB69019308BD7B
:104EF0004802030008B5024B1B685B6C019308BDB8
:104F00004802030008B5024B1B685B69019308BDAA
:104F10006402030008B5024B1B681B6A019308BDBD
:104F20006402030008B5024B1B689B6A019308BD2D
:104F30006402030008B5024B1B68DB68019308BDDF
:104F40003C02030008B5024B1B681B69019308BDB6
:104F50003C02030008B5024B1B685B69019308BD66
:104F60003C02030008B5024B1B689B69019308BD16
:104F70003C02030008B5024B1B68DB69019308BDC6
:104F80003C02030008B5024B1B681B6A019308BD75
:104F90003C02030008B5024B1B689B6A019308BDE5
:104FA0003C02030008B5024B1B681B6C019308BD53
:104FB0003C02030008B5024B1B681B6A019308BD45
:104FC0002802030008B5024B1B685B6A019308BD09
:104FD0002802030008B5024B1B689B6A019308BDB9
:104FE0002802030008B5024B1B68DB6A019308BD69
:104FF0002802030008B5024B1B681B6B019308BD18
:105000002802030008B5024B1B685B6B019308BDC7
:105010002802030008B5024B1B681B6C019308BDF6
:105020002802030008B5024B1B681B68019308BDEA
:105030003802030008B5024B1B685B68019308BD8A
:105040003802030008B5024B1B68DB68019308BDFA
:105050003802030008B5024B1B689B69019308BD29
:105060003802030008B5024B1B68DB69019308BDD9
:105070003802030008B5024B1B681B6A019308BD88
:105080003802030008B5024B1B685B6A019308BD38
:105090003802030008B5024B1B689B6A019308BDE8
:1050A0003802030008B5024B1B681B6B019308BD57
:1050B0003802030008B5024B1B689B6B019308BDC7
:1050C0003802030008B5024B1B68DB6B019308BD77
:1050D0003802030008B5024B1B68DB69019308BD69
:1050E0003002030008B5024B1B681B6A019308BD20
:1050F0003002030008B5024B1B681B68019308BD12
:105100004C02030008B5024B1B685B68019308BDA5
:105110004C02030008B5024B1B681B69019308BDD4
:105120004C02030008B5024B1B685B69019308BD84
:105130004C02030008B5024B1B689B69019308BD34
:105140004C02030008B5024B1B68DB69019308BDE4
:105150004C02030008B5024B1B681B6A019308BD93
:105160004C02030008B5024B1B689B6A019308BD03
:105170004C02030008B5024B1B685B6B019308BD32
:105180006002030008B5024B1B681B6D019308BD4C
:105190006002030008B5024B1B685B68019308BD01
:1051A0002002030008B5024B1B685B69019308BD30
:1051B0002002030008B5034B1B68D3F88830019325
:1051C00008BD00002002030008B5034B1B68D3F89C
:1051D0009430019308BD00002002030008B5024B83
:1051E0001B681B68019308BD4002030008B5024B11
:1051F0001B685B68019308BD4002030008B5024BC1
:105200001B689B68019308BD4002030008B5024B70
:105210001B68DB68019308BD4002030008B5024B20
:105220001B681B69019308BD4002030008B5024BCF
:105230001B685B69019308BD4002030008B5024B7F
:105240001B689B69019308BD4002030008B5024B2F
:105250001B68DB69019308BD4002030008B5024BDF
:105260001B681B6A019308BD4002030008B5024B8E
:105270001B681B6B019308BD4002030008B5024B7D
:105280001B685B6B019308BD4002030008B5024B2D
:105290001B681B6C019308BD4002030008B5024B5C
:1052A0001B685B6C019308BD4002030008B5024B0C
:1052B0001B689B68019308BD4402030008B5024BBC
:1052C0001B68DB6B019308BD4402030008B5024B69
:1052D0001B681B68019308BD1C02030008B5024B44
:1052E0001B685B68019308BD1C02030008B5024BF4
:1052F0001B689B68019308BD1C02030008B5024BA4
:105300001B685B6A019308BD1C02030008B5024BD1
:105310001B68DB6B019308BD1C02030008B5024B40
:105320001B681B6C019308BD1C02030008B5024BEF
:105330001B685B6C019308BD1C02030000224068DF
:105340001146FFF78BBF002240681146FFF796BF5A
:1053500040680022FFF78ABF4068002281F0010107
:10536000FFF774BF002340681A461946FFF766BF6F
:10537000002340681A461946FFF758BF00224068CC
:105380001146FFF74BBF002240681146FFF736BFBA
:10539000406800220221FFF739BF002340681A4607
:1053A000FFF724BF024B03225A60024A1A6070477B
:1053B000B4E603204C710B0010B50446084621707A
:1053C000FFF788FE00236360204610BD054B0222D4
:1053D0001A60054B054A9A600020C3E90000FFF7F8
:1053E000D9BE00BFC8E60320BCE603200000FFFFD3
:1053F000704710B50C210446FFF7CFFA204610BDC8
:1054000010B504460068FFF769FF204610BD38B5A7
:1054100004460D4600680131FFF768FF10B1C4E98A
:105420000005012038BD10B50368044623B1436868
:105430008B4201D3012010BD2046FFF7E8FF002872
:10544000F9D0A368002BF5D122681370F2E770B58C
:1054500005460E4609B9002070BD6AB1846814443F
:105460002146FFF7E0FF0028F5D02868AB683146F9
:10547000184401F093FDAC600120EDE738B5044617
:1054800080688568FFF7E3FFA3689868401B38BD14
:1054900007B500238DF80410012201A98DF805300D
:1054A000FFF7D5FF03B05DF804FB08B58068FFF790
:1054B000EFFF08BD30B585B000230D460293C0E96B
:1054C0000033836003731421064B01930446039059
:1054D000FFF7A9FF2B6801A91B68284698472046BB
:1054E00005B030BD88710B00024800230360FFF750
:1054F00001BD00BFCCE60320F8B506460D468F1867
:105500000024BD420CD0336815F8011B9B6830465F
:105510009847031E01DB1C44F3E7002C08BF1C4620
:105520002046F8BD13B50446084659B10191FFF76E
:10553000EDF923680199DB680246204602B0BDE818
:105540001040184702B010BD03689B68184738B573
:105550000D210546FFF7F8FF0A2104462846FFF70C
:10556000F3FF204438BD38B50546FFF7DBFF04469E
:105570002846FFF7ECFF204438BD30B58BB0002340
:10558000012A8DF8243098BF0A2209AC0D46B1FBE0
:10559000F2F101FB125303F0FF03092B94BF3033E8
:1055A0003733DBB2AA4204F8013DEFD92146FFF7B9
:1055B000B9FF0BB030BD2DE9F04186B000AF054614
:1055C0000E46381D142114463B60FFF797FE132842
:1055D0000ED8391D2846FFF7A5FF04461EB1284600
:1055E000FFF7B5FF044420461837BD46BDE8F081FB
:1055F00000F1080323F00703E846ADEB030D224654
:10560000411C3B686846FFF779FE69462846FFF76C
:1056100089FF0446C546E1E7014B024A1A6070471C
:10562000D0E60320A0710B00024B1A68024B1A60EF
:10563000704700BFB0E50320D4E603200021FFF748
:10564000B1BD13B5134602688DF8071094690DF1CA
:1056500007010122A04702B010BD07B503688DF80D
:105660000710DB6801220DF10701984703B05DF8D0
:1056700004FB10B403689C694FF0FF33A4465DF847
:10568000044B604710B504460020A06104F11400EB
:1056900000F05CFCA369636010BD30B587B00446C0
:1056A00001AD684600F0CCFA0FCD04340FC42B686E
:1056B000237007B030BD70B50C4694B01C2506466B
:1056C00000F07AFA2A4600210DA801F031FC636946
:1056D00001950DA9186801AAFFF7B4FC014620BB8B
:1056E0009DF83530022B04D10EA93046FFF7D5FFC7
:1056F0001BE00A2B19D102AC1122204601F018FC44
:10570000DDE90F23134313D00FAB0FCB08AD84E8B3
:105710000F000623214607A88DF8183000F05AFA2A
:105720000FCD341D0FC42B682370304614B070BDEC
:105730004FF6FF70119DFFF7EDFB8542E4D112A9F2
:10574000D3E738B54B6843608B688360CB68C36030
:105750000B6903614B6943618D6983699D4204460E
:1057600008D015B16B6801336B60A06908B1FFF711
:1057700039F9A56138BD000010B5034B036004463C
:10578000FFF74AF9204610BDF0710B0010B5044632
:10579000FFF7F2FF20461C21FFF7FFF8204610BD5F
:1057A000F8B5124B036000254FF0FF360181C2604F
:1057B0004560066131460E4F0446143000F0FEFD90
:1057C00029462846FFF78EFB3B6843B91C20FFF7AC
:1057D000E0F8054610B1314600F0F0FD3D600021D3
:1057E0000120FFF77FFB2046F8BD00BF3C720B0095
:1057F000D8E6032010B50446143000F0B7FD206948
:10580000FFF730FC4FF0FF33236110BD38B505467C
:10581000054B45F8143B0446FFF7ECFF2846FFF71D
:10582000FBF8204638BD00BF3C720B0010B50446A3
:10583000FFF7ECFF20463021FFF7AFF8204610BD00
:1058400070B504468CB0FFF7D5FF2369002B5CDAF6
:105850001C22002105A801F06BFB40F61C232089C7
:10586000ADF81430FFF75EFB0622ADF816000121FB
:105870000A20FFF71FFC0028206106DA20460025D9
:10588000FFF7B8FF28460CB070BD01230426029331
:10589000009602AB324640F6FF71FFF7DBFB054690
:1058A0000028EBD1024603212069FFF70BFC021E02
:1058B000E4DB206942F001023146FFF703FC0028D7
:1058C000DCDBE068A0B103A9C0B20395ADF81050CD
:1058D000FFF7E0FA0028D1D106230093206903AB3B
:1058E00041F20B0240F6FF71FFF7B4FB0028C5D16F
:1058F00020691C2205A9FFF79DFB0028BED1206965
:105900000521FFF7BFFB0028B8D10125BAE7000049
:105910004B684360094B03608B688360CB68C3604E
:105920000B690361064B03604B6943618B698361BB
:1059300013B15A6801325A60704700BFC8710B003A
:1059400030730B002DE9F0410B69002B96B0064631
:105950000C4603DA0B6808461B6998472569002D39
:1059600004F114070CDA244B38461968FFF7E9FEF6
:1059700039463046FFF7CCFF304616B0BDE8F0811F
:105980004FF01C084246002108A801F0D1FA08A9EE
:1059900001AA2846CDF80480FFF744FB011E12DA65
:1059A000154B38461968FFF7CCFEFFF7AFFC0368CC
:1059B0000B2BDDD0FFF7AAFC03680B2BD8D02046B9
:1059C000FFF718FFD4E70FA800F0F8FC03AD0B4B6E
:1059D000149C0F930FA902A8FFF76DFE0FCD8C3416
:1059E0000FC42B68237038460FA9FFF7AAFE0FA833
:1059F000FFF7C2FEBCE700BFD8E60320F0710B0042
:105A0000014B00229A607047DCE60320014B1860CE
:105A1000704700BFB8E5032008B50B4B43B100F059
:105A200081F903681B699847002801DDAFF3008006
:105A3000064B43B100F088FE03681B6998470028B5
:105A400001DDAFF3008008BD000000000000000091
:105A500008B5FFF7E1FFFFF735FA014B186008BD05
:105A600040E703200548064A064908B5121A01F026
:105A700051FA054B054A1A6008BD00BF00F4032027
:105A800004F4032064760B0000F403201E1C279A04
:105A900007B5002300931A466FF07701FFF794FBD8
:105AA00003B05DF804FB000007B543880A2B08D05B
:105AB000502B0BD1094B1B684BB103B05DF804EBC5
:105AC0001847FFF7E5FF03B05DF804FB00230093E0
:105AD0001A466FF07701FFF777FBF4E7F0E6032053
:105AE00010B512480021FFF721FC114B1A68114B29
:105AF0009A42114B0CBF012200221A7001D0FFF70D
:105B0000B1FFFFF7CFF9044601F01AFA0B4B13B1BE
:105B10002046AFF3008000210848FFF7CFFBBDE827
:105B2000104007480021FFF745BB00BF0D5A0B008E
:105B300000F403201E1C279AECE60320000000005E
:105B4000A95A0B00704710B518210446FEF725FF2F
:105B5000204610BDF0B5037D062B8DB00E4600F13A
:105B600004074FF0000412D000F1080515F8011DDC
:105B70000A223046FFF701FDAF42044419D0002C41
:105B8000F4D02E213046FFF7DFFC0444EEE72F234C
:105B90006A4639460A208DF80040FFF7B3F9684697
:105BA000FEF7B4FE33680246DB6869463046984724
:105BB000044620460DB0F0BD10B5054B0446112239
:105BC00040F8043B002101F0B3F9204610BD00BFAE
:105BD00060720B000346074A10B543F8042B01F12D
:105BE000100251F8044B43F8044B9142F9D10A7862
:105BF0001A7010BD60720B00037D042B04D1406845
:105C0000003818BF01207047062B07D143683BB905
:105C100083682BB9C3681BB90069F1E7002070479E
:105C20000120704710B59DF8084044EA032343EA79
:105C3000024242EA016104234160037510BD000085
:105C400007B5064B0360CB7800938B784A780978C8
:105C5000FFF7E8FF03B05DF804FB00BF60720B00C4
:105C6000417470477047704708B50021007CFFF70A
:105C700061FA40EAE07008BD08B50121007CFFF739
:105C800059FA40EAE07008BD08B5007CFFF74AFA0F
:105C900020EAE07008BD08B5007CFFF73BFA20EA77
:105CA000E07008BD13B50446007C0191FFF73AFA95
:105CB0000028019901DC607C20B1207CFFF742FACA
:105CC00020EAE07002B010BD007CFFF743BA10B5C7
:105CD00014210446FEF761FE204610BD10B54FF4B6
:105CE0007A73044608460021C4E90113044B23607B
:105CF0000123207463741146FFF7FCF9204610BDA0
:105D000074720B00007C0022FFF7FCB9007CFFF7E7
:105D100029BA10B514220446002101F009F92046E1
:105D200010BD000010B50F4C88B003A8FFF7F1FFBD
:105D30002178BFF35B8F11F001010FD12046019153
:105D4000FEF73AFE019948B103AA0748FFF7C6FFDC
:105D50002046FEF736FE054801F0D6F8024808B0A6
:105D600010BD00BFF4E60320F8E60320655C0B00DD
:105D700070474174704708B5007CFFF70BF920EAC3
:105D8000E07008BD08B5007CFFF7DCF820EAE070A1
:105D900008BD08B5007CFFF7E5F840EAE07008BDF3
:105DA00008B5007CFFF7D6F840EAE07008BD007C3B
:105DB000FFF7E0B837B5457C04462DB1207C03B031
:105DC000BDE83040FFF7B6B8007C0191FFF7E2F87C
:105DD00000280199F2DC284603B030BD10B514212B
:105DE0000446FEF7DAFD204610BD000010B54FF462
:105DF0007A730446084611460022C4E90123044B85
:105E00002360012320746374FFF7CCF8204610BD93
:105E1000A4720B007047F8B5064615460C468F185D
:105E2000BC4206D0336814F8011B9B683046984783
:105E3000F6E72846F8BD007C0022FFF7BBB8007CDF
:105E40000021FFF7BFB8007C0021FFF7C3B8007C3A
:105E50000021FFF7C7B8007C0021FFF7CBB810B5D1
:105E600014210446FEF799FD204610BD10B54FF4ED
:105E70007A73044608460021C4E90113034B2360EA
:105E800020741146FFF7C6F8204610BDD4720B00EF
:105E900013B503688DF80710DC6B01224FF0FF3358
:105EA0000DF10701A04702B010BD10B40368DC6B10
:105EB0004FF0FF33A4465DF8044B604713B513461B
:105EC00002688DF80710D46B0DF107010122A0477D
:105ED00002B010BD10B54369B3F88620B3F8843022
:105EE0009A42044608D06369B3F88420511CA3F891
:105EF00084101344187910BD03681B699847002863
:105F0000F1D14FF0FF30F6E7704743691868C0439E
:105F1000C00F704770470000064B994210B500F162
:105F20000C0405D0084600F071FC002808BF0024CE
:105F3000204610BD98710B0010B5AC210446FEF749
:105F40002CFD204610BDAC21FEF727BD2DE9F04108
:105F50004FF0000886B01C46C0F8048005460E4687
:105F600017464146102202A800F0E2FF631C09D048
:105F70004FF47A73B4FBF3F203FB1244CDE9022829
:105F80005C430494686910230093006802AB41F2FB
:105F9000050240F6FF71FFF75DF8002807DAFFF70A
:105FA000B5F903686B60002006B0BDE8F081686950
:105FB000002300683A463146FFF774F8031EEEDB13
:105FC0001846F1E730B587B0044601AD6846FFF7E3
:105FD00037FE0FCD04340FC42B68237007B030BDDB
:105FE00070B54D69054B04468C3544F8043B0646B4
:105FF0000FCD0FC42B682370304670BD60720B004C
:106000002DE9F0439846036893B00D460024DB6AFF
:1060100006461746984728466B4622462146009476
:10602000FEF708FF0546002863D1009B002B4BD0EC
:106030005B69002B48D006A8FFF7BEFD009B5C699A
:106040006378022B04D1211D06A8FFF7BBFF26E0D1
:106050000A2B24D11122294601A800F069FFA36868
:10606000002B38D004F108030DF1040C1834186823
:106070005968624603C20833A3429446F7D1062307
:1060800001A90CA88DF81430FFF7A4FD0DF1340C14
:10609000BCE80F0007AC0FC4DCF80030237006A882
:1060A000FFF7AAFD80B1336807ADD3F82090124BFB
:1060B0000C930FCD0DAC0FC42B6823703A464346AA
:1060C0000CA93046C84705460098FEF7ABFE2846A7
:1060D00013B0BDE8F083E368002BC3D14FF6FF7027
:1060E000D4F81090FEF716FF8145BBD104F11401DE
:1060F000AAE72546E8E700BF60720B0038B54369A0
:106100001A68002A054610DAB3F88620B3F88430FE
:106110009A420AD103681B699847044628B92B683C
:106120002846DB6A9847204638BD0120FCE710B5B9
:106130004369B3F88620B3F884309A42044605D008
:106140006369B3F884201344187910BD03681B6990
:1061500098470028F4D14FF0FF30F6E7F8B54369CF
:106160001746B3F88620B3F884309A4205460E46A7
:1061700016D06969B1F88430B1F88640E41ABC429F
:1061800028BF3C46043322461944304600F0C2FE84
:106190006A69B2F884302344A2F884302046F8BDFE
:1061A00003681B6998470028E3D14FF0FF34F5E7F7
:1061B00042690023A2F884304269A2F88630704711
:1061C0002DE9F0411F4603680C46DB6A8AB005469C
:1061D00016469847237DD5F81480042B0CBF022067
:1061E0000A2006220121FEF765FFC8F800006B694E
:1061F0001B68002B08DA2B682846DB6A00249847C6
:1062000020460AB0BDE8F0812846FFF7D1FFB7B1BC
:10621000002303A9F8B20393ADF81030FEF73AFE5D
:106220000028E8D1686906230093006803AB41F2B7
:106230000B0240F6FF71FEF70DFF0028DBD11C2298
:10624000002103A800F074FE237D042B1DD14FF420
:1062500007733046ADF80C30FEF764FEADF80E0063
:106260006068FEF757FE04906B691C22186803A94A
:10627000FEF700FF0028BED104340FCC6D698C35C9
:106280000FC523682B700124BAE740F61C23304663
:10629000ADF80C30FEF746FE05AEADF80E00231D3E
:1062A00004F1140718685968324603C20833BB4228
:1062B0001646F7D1D8E7000030B54269B2F886300B
:1062C0008BB004462BB1B2F884209A4201D1FFF77B
:1062D0006FFF61690868002818DBB1F886507F2DD0
:1062E00014D804310823C5F180022944FEF7D2FEF8
:1062F000002813DD6369B3F886200AB9A3F8842067
:106300006369B3F886201044A3F886006369B3F884
:106310008600B3F88430C01A0BB030BDFEF7F6FF2C
:1063200003680B2BF2D0FEF7F1FF03680B2BEDD0C7
:1063300020230025CDE90235FEF7E8FF036801932D
:10634000084B0949009302AA2B463220FEF71AFF98
:1063500063691868FEF786FE63694FF0FF321A60C2
:10636000D4E700BFFB720B00F4720B0010B5436959
:1063700004461868002801DBFEF774FE63694FF0DD
:10638000FF321A606069112200218C3000F0D0FDCC
:106390002046BDE81040FFF70BBF43691868C043B3
:1063A000C00F704710B5002304460160C0F8843068
:1063B0008830FFF701FC204610BD000073B50023B4
:1063C0004FF47A72C0E901320E4A03610260436100
:1063D0000446AC200191FEF7DCFA051E05F10C061F
:1063E00008D00123C5E90133074B01992B603046E2
:1063F000FFF7D8FF2046C4E90565FFF7D9FE02B0D4
:1064000070BD00BF30730B0014730B0010B54FF05C
:10641000FF310446FFF7D2FF204610BD10B50446F9
:106420000068002801DBFEF71DFE204610BD0C3081
:10643000FFF7F4BF002240681146FEF7EFBE0022CE
:1064400040681146FEF70ABF002240681146FEF779
:1064500015BF40680022FEF709BF4068002281F0A6
:106460000101FEF7F3BE002340681A461946FEF705
:10647000E5BE002340681A461946FEF7D7BE002243
:1064800040681146FEF7BABE406800220221FEF7BE
:10649000BDBE002340681A46FEF7A8BE024B042288
:1064A0005A60024A1A6070470CE703207C730B00A5
:1064B000002340681A46FEF799BE40680022022178
:1064C000FEF7A4BE002240681146FEF797BE0022E8
:1064D00040681146FEF7A2BE002340681A461946DE
:1064E000FEF7A4BE002340681A461946FEF7A6BE72
:1064F00040680021FEF7CABE40680021FEF7CEBE0C
:106500004068002281F00101FEF7A0BE4068002231
:10651000FEF7ACBE002240681146FEF7AFBE002277
:1065200040681146FEF79ABE2DE9F04395B0144637
:106530000D460746FFF740FB00211C220DA80091E5
:1065400000F0F6FC40230C9320466B460CAA002179
:10655000FEF770FC044600284BD102460121686812
:10656000FEF75CFE0221804622466868FEF756FE72
:10657000009E81462146002E3BD0002939D1736808
:10658000022B03D00A2B11D0F669F4E7B8F1000F03
:10659000FAD0716906A8043107ADFFF751FB0FCDA2
:1065A0003C1D0FC42B6823704146EDE7B9F1000F85
:1065B000EAD07469102201A800F0BAFC06238DF815
:1065C000143001AD04F108031834186859682A46DC
:1065D00003C20833A3421546F7D101A906A807ADA7
:1065E000FFF7F8FA0FCD3C1D0FC42B682370494606
:1065F000CAE70098FEF716FC384615B0BDE8F083F0
:10660000024B034A1A6000225A60704714E70320C5
:10661000B8730B00232813B502D9002002B010BDB7
:10662000A0F10B03022B1AD8174C2178BFF35B8F14
:1066300011F001010BD120460191FEF7BDF901993E
:1066400028B11248FEF7B8FE2046FEF7BAF90F4B04
:106650001878FEF747FD0028DFD10120DEE701288A
:1066600009D800F0ADF80021007CFEF7CBFC80F0EB
:106670000100C0B2D2E709380128EED800F064F872
:10668000007CFEF77FFCF2E71CE7032020E70320F5
:10669000232838B504460D460AD8FF2908D0FFF74D
:1066A000B9FF28B129462046BDE83840FEF7D2BBE5
:1066B00038BD38B504460D46FEF7D4FBFF2810D090
:1066C000062804D84D2323FA00F0C30709D4204636
:1066D000FFF7A0FF28B129462046BDE83840FEF765
:1066E000C9BB38BD0D2810B504469CBF0E34A4B2FA
:1066F0002046FFF78FFF50B103212046FEF7A2FB93
:10670000032804D12046BDE81040FEF7BBBB0020A3
:1067100010BD704738B5044614252A46002100F004
:1067200007FC25804025074925812846258200F061
:106730006BF804496060284600F066F8E060204687
:1067400038BD00BFEC730B0030B50E4D2978BFF398
:106750005B8F11F0010487B011D12846FEF72CF9A8
:1067600068B101A8FFF7D6FF01AA21460648FFF746
:106770003DFB2846FEF725F9044800F0C5FB02481A
:1067800007B030BD28E703202CE7032013670B0078
:106790007047000038B52025142304460360856047
:1067A00005610649284600F02FF804496060284634
:1067B00000F02AF8E060204638BD00BFEC730B0003
:1067C00030B50E4D2978BFF35B8F11F0010487B00F
:1067D00011D12846FEF7F0F868B101A8FFF7DAFFFB
:1067E00001AA21460648FFF741FB2846FEF7E9F8D3
:1067F000044800F089FB024807B030BD44E703209D
:1068000048E7032091670B00FEF7C5B8014900F087
:10681000F9B800BF08740B007FB500241023CDE940
:106820000234036815469E6912686B46CDE9004440
:10683000B0479DF8043003F00603062B03BF009B0E
:106840002B600120204604B070BD0098904214BF18
:10685000012006207047000010B5034B036004467A
:1068600000F0CDF8204610BD48740B0010B504466A
:10687000FFF7F2FF20460821FEF78FF8204610BDF3
:106880002DE9F0411F46DDE90834DDF81880984510
:106890000646154607D1079900F0B4F818B165719E
:1068A0000020BDE8F0813946304600F0ABF8002802
:1068B000F6D00123C4F800802571A371F0E738B544
:1068C00015461C4600F09EF820B10823E36006231D
:1068D0002560237138BD73B505460C4601921E46EE
:1068E00000F090F850B9032E08D82368019A5B692C
:1068F0002946204602B0BDE87040184702B070BD7E
:1069000010B5034B03600446FFF7A6FF204610BDF9
:10691000A8740B0010B50446FFF7F2FF20460C21C7
:10692000FEF73BF8204610BDF7B5089F9742054695
:106930000E4614460AD0A86802680897156A3146C0
:106940002246AC4603B0BDE8F040604719460193CB
:1069500000F058F8019B0028EDD0062003B0F0BDF0
:106960002DE9F14F0D461946DDE90A4BDDE90CA68C
:1069700081461746984600F045F890B1002D3460E6
:10698000377109DB61198A450CBF06210121B171FC
:10699000002001B0BDE8F08F0235F9D10123B371B9
:1069A000F6E7544506D15946484600F02BF808B1A1
:1069B0007771EDE7D9F808000368CDE90CA6CDE9B9
:1069C0000A4BDC693A4643462946A44601B0BDE875
:1069D000F04F60472DE9F04107460C4615461E462C
:1069E000FFF76DFF48B9B86803689F692A463346C8
:1069F0002146BC46BDE8F0416047BDE8F0817047E4
:106A000000207047814208B50ED0406803782A2BD9
:106A10000CD049680B782A2B08BF0131FDF76CFFB9
:106A2000B0FA80F0400908BD0120FCE70020FAE739
:106A300038B52DED028B55EC104B00F041F81E4B94
:106A4000B0EE408AF0EE608A93F9003001331AD03C
:106A500022462B4620462946FDF738FF98B90022EA
:106A6000002320462946FDF727FF60B900220023B6
:106A700020462946FDF7F8FE60B1FEF747FC9FED82
:106A80000C8B22230360B0EE480AF0EE680ABDECDE
:106A9000028B38BDFEF73AFCBDEC028B0346212287
:106AA0001A600648BDE8384000F026BAAFF300800F
:106AB000000000000000F0FFB4E50320E4740B00C8
:106AC0002DE9F04F51EC100B2DED028BB1F5801F2D
:106AD00085B00F4658DA21F00043034310EE102A28
:106AE00000F0FC800029C0F23C81E14B0022FDF760
:106AF00053FCE04B0F469F426FF0350249DC3E15D8
:106B0000C7F3130707F51523A6F2FF3603F66473E0
:106B1000164403F4801306EB135683F07F5383F47B
:106B2000401343EA07010022D34BFDF77DFABB1C5B
:106B3000C3F31303022B82468B4635DC002200236D
:106B4000FDF792FE002800F0D680002E00F0608154
:106B50003046FDF7B7FBB0A3D3E9002306460F4646
:106B6000FDF71AFCAEA3D3E9002304460D463046D8
:106B70003946FDF711FC02460B4620462946FDF733
:106B800055FA41EC100B0AE0BA4B9F424FF000025D
:106B9000B5DD02460B46FDF749FA41EC100B05B096
:106BA000BDEC028BBDE8F08FA7F5C223A3F27A43B8
:106BB000019300224FF08043FDF738FA02460B465E
:106BC00050465946FDF712FD41EC180B3046FDF7D3
:106BD00079FB53EC182BCDE9020151EC180BFDF7B2
:106BE000DBFB02460B4680468946FDF7D5FB8EA3AC
:106BF000D3E9002304460D46FDF7CEFB8CA3D3E971
:106C00000023FDF713FA22462B46FDF7C5FB8AA3A6
:106C1000D3E90023FDF70AFA22462B46FDF7BCFB19
:106C200087A3D3E90023FDF701FA42464B46FDF75F
:106C3000B3FB85A3D3E90023804689462046294635
:106C4000FDF7AAFB82A3D3E90023FDF7EFF9224663
:106C50002B46FDF7A1FB80A3D3E90023FDF7E6F95E
:106C600022462B46FDF798FB0B4602464946404616
:106C7000FDF7DCF9C7F5D727019B51371F43002FDC
:106C8000804689465FDD7D4B002250465946FDF720
:106C900083FB52465B46FDF77FFB04460D46002E04
:106CA00069D122462B4640464946FDF7BFF953ECD1
:106CB000182BFDF771FB02460B4620462946FDF7CF
:106CC000B3F902460B4650465946FDF7ADF941EC83
:106CD000100B05B0BDEC028BBDE8F08F0022002345
:106CE00067490020FDF782FC41EC100B05B0BDECBC
:106CF000028BBDE8F08F5AA3D3E9002350465946D2
:106D0000FDF74AFB02460B4600205C49FDF78CF973
:106D1000524604460D465B4650465946FDF73CFB3D
:106D200002460B4620462946FDF736FB04460D4633
:106D3000002E59D102460B4650465946FDF774F9CC
:106D400041EC100B2BE7002E40F09C8002460B46D6
:106D500050465946FDF768F953EC182BFDF71CFB1C
:106D6000AFE70B46FDF760F900220023FDF73EFC7C
:106D700041EC100B13E728A3D3E90023DDE902015E
:106D8000FDF70AFB22462B4606460F46404649467B
:106D9000FDF74CF953EC182BFDF7FEFA20A3D3E9CD
:106DA000002380468946DDE90201FDF7F5FA024637
:106DB0000B4640464946FDF739F902460B46204648
:106DC0002946FDF731F952465B46FDF72DF902469B
:106DD0000B4630463946FDF727F941EC100B05B05C
:106DE000BDEC028BBDE8F08F3046FDF76BFA0AA3CD
:106DF000D3E9002380468946FDF7CEFA08A3D3E9FC
:106E0000002306460F4640464946FDF7C5FAD4E73B
:106E10009FED150BC3E600BF0000E0FE422EE63FEB
:106E2000763C7935EF39EA3D44523EDF12F1C23FFC
:106E3000DE03CB966446C73F599322942449D23F40
:106E4000935555555555E53F9FC678D0099AC33F90
:106E5000AF788E1DC571CC3F04FA97999999D93FA7
:106E6000555555555555D53F000000000000000010
:106E700000005043FFFFEF7F0000F03F0000E03FC5
:106E8000000050C318A3D3E90023DDE90201FDF798
:106E900083FA42464B4604460D4650465946FDF796
:106EA000C3F853EC182BFDF777FA11A3D3E90023AD
:106EB00006460F46DDE90201FDF76EFA02460B4673
:106EC00030463946FDF7B0F852465B46FDF7ACF860
:106ED00002460B4620462946FDF7A6F841EC100B6A
:106EE0005DE600BFAFF300800000E0FE422EE63F0B
:106EF000763C7935EF39EA3D9FED010B704700BFD5
:106F0000000000000000F87F002301461A461846E2
:106F100000F04CB80A44914200F1FF3300D17047B1
:106F200010B511F8014B03F8014F9142F9D110BD92
:106F300002440346934200D1704703F8011BF9E76E
:106F400038B5104B1D68AB6B0446B3B91820FEF77B
:106F5000BDF90246A86320B90B4B0C484221FEF74D
:106F6000DDF90B490B4BC0E900130B4B83600B237E
:106F7000838100210120C2E90401AB6B00221C6166
:106F80005A6138BDB8E50320E5740B00FC740B00B2
:106F90000E33CDAB34126DE6ECDE0500034611F87E
:106FA000012B03F8012B002AF9D170472DE9F84392
:106FB000DFF8B8800646D8F800001F460D46914617
:106FC00000F056F8254B1C6834B9254C1C60254B45
:106FD00013B11B68C4F8883063681F2B07DDD8F82D
:106FE000000000F047F84FF0FF30BDE8F8834EB3E3
:106FF000D4F8880088B91C4B23B9D8F8000000F0F9
:1070000038F8F0E74FF48470FEF760F90028F4D008
:107010000023C0E94033C4F88800636840F8239037
:1070200001229A4000EB8301D0F800311343C0F8ED
:107030000031022EC1F8807002BFD0F80431134332
:10704000C0F804316368D8F800005A1C023362604B
:1070500044F8235000F00EF80020C6E7E8E70320CC
:107060005CE7032000000000CD520B001CE603206B
:1070700070477047704700000000000000000000EB
:1070800000000000000000001D490B0059490B00E2
:1070900081490B0085490B000000000043616C6CC6
:1070A000206F6E2070757265207669727475616CE0
:1070B00000636F6E6E6563746564006C6F63616C12
:1070C00049503D2573007375626E65744D61736B35
:1070D0003D2573006761746577617949503D25737B
:1070E0000054656D70657261747572653A2025345F
:1070F0002E3166C2B0430A006C6F63616C49503D2B
:1071000025730A00544350206279746573207265B8
:107110006365697665643A2025690A0054435053D3
:1071200065727665723A3A777269746528292066C5
:1071300061696C656420286572726F72203D20253C
:107140006429000000000000000000009B530B00B9
:1071500091530B0087530B007D530B0071530B00B1
:1071600065530B00F1640B00F9640B0059530B00DD
:1071700051530B0047530B003D530B0029650B0087
:107180000000000000000000F1530B00F3530B005F
:10719000AB540B007D540B00000000000000000009
:1071A0006170700025592D256D2D25645425483AB0
:1071B000254D3A2553257A0061736374696D650026
:1071C00000000000000000000000000000000000BF
:1071D000A1490B00F9540B00A1490B00A1490B0078
:1071E000A1490B00A1490B000000000000000000B5
:1071F00079570B008D570B00915E0B00AB5E0B00B7
:10720000B9620B00D55E0B002F610B00095F0B000C
:10721000C1610B0001600B005D610B006D630B0031
:10722000FD600B000B5F0B00BD5E0B004D5F0B00A4
:10723000B7560B0000000000000000000D580B00C6
:107240002D580B005B560B0073560B0041580B007A
:1072500043560B0085560B000000000000000000A4
:10726000555B0B00455B0B00475B0B00000000000B
:1072700000000000675C0B00CF5C0B00A55C0B00FE
:10728000F9540B00975C0B00695C0B00795C0B00F8
:10729000C95C0B00895C0B00615C0B000000000006
:1072A00000000000715D0B00DD5D0B00B55D0B00A3
:1072B000F9540B00855D0B00A15D0B00935D0B0085
:1072C000AF5D0B00735D0B00775D0B0000000000ED
:1072D00000000000155E0B005F5E0B00375E0B00C8
:1072E000175E0B003F5E0B00475E0B004F5E0B000E
:1072F000575E0B00776972696E670072656376206E
:107300006572726F72203D2025640000000000004D
:1073100000000000155F0B00395F0B002F640B00AD
:10732000475F0B00195F0B00000000000000000029
:10733000194A0B00314A0B00915E0B00AB5E0B004B
:10734000B9620B00D55E0B002F610B00095F0B00CB
:10735000C1610B0001600B005D610B006D630B00F0
:10736000FD600B000B5F0B00BD5E0B004D5F0B0063
:10737000E15F0B00000000000000000093640B00C0
:1073800089640B007F640B0035640B0073640B0091
:1073900067640B00F1640B00F9640B005B640B0085
:1073A00053640B0049640B003F640B0029650B001C
:1073B0000000000000000000B1640B00BB640B0083
:1073C000C5640B00CF640B00D9640B00E5640B00AF
:1073D000F1640B00F9640B0001650B000D650B00F7
:1073E00015650B001F650B0029650B0000537431F8
:1073F000395F53705F6D616B655F7368617265645F
:107400005F7461670000000048740B00ED730B00AF
:10741000A8740B001C740B00CC740B004E31305F51
:107420005F637878616269763131375F5F636C6181
:1074300073735F747970655F696E666F45000000F5
:107440000000000010740B0059680B006D680B0001
:10745000016A0B00016A0B00D7680B0019680B006A
:10746000BF680B0081680B004B680B00A8740B0011
:1074700078740B0010740B004E31305F5F637878C6
:10748000616269763132305F5F73695F636C61732B
:10749000735F747970655F696E666F450000000008
:1074A000000000006C740B0001690B0015690B00F3
:1074B000016A0B00016A0B00D7680B0019680B000A
:1074C000D5690B0061690B0029690B0048740B003A
:1074D000D4740B00537439747970655F696E666F8C
:1074E00000000000005245454E54206D616C6C6FE9
:1074F0006320737563636565646564002F6D6E74E6
:107500002F776F726B73706163652F776F726B7318
:10751000706163652F4743432D31302D706970656D
:107520006C696E652F6A656E6B696E732D47434398
:107530002D31302D706970656C696E652D34385F42
:1075400032303230313132345F31363036313830EA
:107550003634312F7372632F6E65776C69622F6ECC
:1075600065776C69622F6C6962632F7374646C69F0
:10757000622F72616E642E6300000000E14D0B000B
:10758000A5530B00CD530B00E9540B0019560B000B
:1075900029560B00015A0B009D640B0001660B007D
:1075A000040000001400000003000000474E5500D6
:1075B0007DD1E0E1AC9469B088D2D6EF70AA59478A
:0475C0004C00E1A0FA
:1075C4000700000000000000000000000088C34025
:1075D400130000000000000070D5EF2DE36F523F50
:1075E4004696AD8D9FC32E3FF9A1BC82C0FE763E68
:1075F400B8710B00FF000000BCE503200000000090
:107604000000000000000000000000000000000076
:107614000000000000000000000000000000000066
:107624000000000000000000000000000000000056
:107634000000000000000000000000000000000046
:107644000000000000000000000000000000000036
:10765400000000000000000000000000ECE7032030
:047664000000000022
:10766E0000000102030405060708090A0B0C0D0EA3
:10767E000F101112131415161718191A1B1C1D1E94
:04768E001F20280091
:0476920078563412E0
:04000003B0004020E9
:00000001FF
