:02000002B0004C
:1040000000400B00825C0B00000006000C00050263
:084010000401E01500000000AE
:0440180028590B0018
:10401C00034613F8012B002AFBD1181A01387047FC
:10402C0009480A49884208B505D0094A824202D09B
:10403C00121A01F0AAFB0748074A0021121A01F0D4
:10404C00B2FB014808BD00BF40E60320E45B0B0057
:10405C00B0E60320B0E60320F0E7032070B5074E6E
:10406C00074C00F009FDA41BA4080025AC4200D1AC
:10407C0070BD56F8043B98470135F7E79C5B0B0085
:10408C00C05B0B0000F048B808B500F06FF8BDE855
:10409C00084000F0A9BC00F0B9BA00F0B7BA00F0C3
:1040AC00BDBA0078B0FA80F0400970470123037064
:1040BC00704738B5046805467CB16368013B6360A2
:1040CC005BB9236820469B689847A368013BA360B3
:1040DC001BB923682046DB689847284638BD00008A
:1040EC0013B50B4C2178BFF35B8F11F001010BD191
:1040FC0020460191FFF7D5FF019928B1054800F042
:10410C0009FB2046FFF7D2FF024802B010BD00BFEA
:10411C00B0E60320B4E6032008B501F04DF84FF4E7
:10412C00E13101F03DF801210E2001F063FAFFF7B7
:10413C00D7FFBDE8084000F0F7BA38B505460C4685
:10414C000E20002101F067FAFFF7CAFFE9B200F078
:10415C00FFFAFFF7C5FF84F30801C9B200F0F8FAC3
:10416C00BDE8384001210E2001F055BAF0B5244FBE
:10417C00244E254D254C89B0972111203960FFF72D
:10418C00DCFF4FF4FA6000F003FC132001F05CFA42
:10419C0029460246306004A800F05CFB2378049AA0
:1041AC001B498DF8003002A83C2300F0C3FD03A886
:1041BC00FFF77FFF04A800F0EDFA1F2111203960F2
:1041CC00FFF7BBFF4FF4FA6000F0E2FB132001F0A5
:1041DC003BFA29460246306004A800F03BFB2378EA
:1041EC00049A0C498DF8003002A83C2300F0A2FD83
:1041FC0003A8FFF75EFF04A800F0CCFA09B0F0BDED
:10420C0040E60320C0E603203C590B00BCE603202B
:10421C003F590B0049590B00014B00221A70704793
:10422C00BCE6032008B5024B1B689B68019308BDD4
:10423C006802030008B5024B1B68DB68019308BDDC
:10424C006802030008B5024B1B685B68019308BD4C
:10425C002C02030008B5024B1B689B68019308BD38
:10426C002C02030008B5024B1B68DB68019308BDE8
:10427C002C02030008B5024B1B681B69019308BD97
:10428C002C02030008B5024B1B681B6B019308BD85
:10429C002C02030008B5024B1B685B68019308BD38
:1042AC001802030008B5024B1B685B69019308BD3B
:1042BC001802030008B5024B1B685B6C019308BD28
:1042CC004802030008B5024B1B685B69019308BDEB
:1042DC006402030008B5024B1B68DB68019308BD40
:1042EC003C02030008B5024B1B681B69019308BD17
:1042FC003C02030008B5024B1B685B69019308BDC7
:10430C003C02030008B5024B1B689B69019308BD76
:10431C003C02030008B5024B1B68DB69019308BD26
:10432C003C02030008B5024B1B681B6A019308BDD5
:10433C003C02030008B5024B1B689B6A019308BD45
:10434C003C02030008B5024B1B681B6C019308BDB3
:10435C003C02030008B5024B1B681B6A019308BDA5
:10436C002802030008B5024B1B685B6A019308BD69
:10437C002802030008B5024B1B689B6A019308BD19
:10438C002802030008B5024B1B68DB6A019308BDC9
:10439C002802030008B5024B1B681B6B019308BD78
:1043AC002802030008B5024B1B685B6B019308BD28
:1043BC002802030008B5024B1B681B6C019308BD57
:1043CC002802030008B5024B1B681B68019308BD4B
:1043DC003002030008B5024B1B685B69019308BDF2
:1043EC003002030008B5024B1B68DB69019308BD62
:1043FC003002030008B5024B1B681B6A019308BD11
:10440C003002030008B5024B1B681B6C019308BDFE
:10441C003002030008B5024B1B685B6C019308BDAE
:10442C003002030008B5024B1B681B68019308BDE2
:10443C004C02030008B5024B1B685B68019308BD76
:10444C004C02030008B5024B1B681B69019308BDA5
:10445C004C02030008B5024B1B685B69019308BD55
:10446C004C02030008B5024B1B689B69019308BD05
:10447C004C02030008B5024B1B68DB69019308BDB5
:10448C004C02030008B5024B1B681B6A019308BD64
:10449C004C02030008B5024B1B685B68019308BD16
:1044AC002002030008B5024B1B685B69019308BD31
:1044BC002002030008B5024B1B68DB6C019308BD9E
:1044CC002002030008B5024B1B685B6D019308BD0D
:1044DC002002030008B5034B1B68D3F88830019306
:1044EC0008BD00002002030008B5034B1B68D3F87D
:1044FC009430019308BD00002002030008B5024B64
:10450C001B685B68019308BD4002030008B5024BB1
:10451C001B689B68019308BD4002030008B5024B61
:10452C001B68DB68019308BD4002030008B5024B11
:10453C001B681B69019308BD4002030008B5024BC0
:10454C001B685B69019308BD4002030008B5024B70
:10455C001B689B69019308BD4002030008B5024B20
:10456C001B68DB69019308BD4002030008B5024BD0
:10457C001B681B6A019308BD4002030008B5024B7F
:10458C001B681B6B019308BD4002030008B5024B6E
:10459C001B685B6B019308BD4002030008B5024B1E
:1045AC001B681B6C019308BD4002030008B5024B4D
:1045BC001B685B6C019308BD4002030008B5024BFD
:1045CC001B685B6D019308BD4002030008B5024BEC
:1045DC001B689B6D019308BD4002030008B5024B9C
:1045EC001B685B69019308BD4402030008B5024BCC
:1045FC001B681B6A019308BD4402030008B5024BFB
:10460C001B68DB6B019308BD4402030008B5024B29
:10461C001B681B68019308BD1C02030008B5024B04
:10462C001B685B68019308BD1C02030008B5024BB4
:10463C001B689B68019308BD1C02030008B5024B64
:10464C001B685B6A019308BD1C02030008B5024B92
:10465C001B68DB6A019308BD1C02030008B5024B02
:10466C001B681B6B019308BD1C02030008B5024BB1
:10467C001B681B6C019308BD1C02030008B5024BA0
:10468C001B685B6C019308BD1C0203000022406890
:10469C001146FFF76BBF002240681146FFF776BF4B
:1046AC0040680022FFF76ABF4068002281F00101D8
:1046BC00FFF754BF002340681A461946FFF746BF60
:1046CC00002340681A461946FFF738BF002240689D
:1046DC001146FFF72BBF002240681146FFF716BFAB
:1046EC00406800220221FFF719BF002340681A46D8
:1046FC00FFF704BF024B03225A60024A1A6070474C
:10470C00C4E603205C590B000021FFF783BE002197
:10471C00FFF778BE10B5044608462170FFF762FE1D
:10472C0000236360204610BD13B504460078FFF7E4
:10473C00EEFF58B9207801904FF6FF71FFF742FE5B
:10474C00019802B0BDE81040FFF7DEBF02B010BD0B
:10475C0008B50078FFF73EFEC0B208BD10B58368FF
:10476C00044613B1032201469847204610BD0000B1
:10477C00054B02221A60054B054A9A600020C3E9DA
:10478C000000FFF787BE00BFD8E60320CCE603206D
:10479C000000FFFF10B504460068FFF73FFF2046FE
:1047AC0010BD10B50446006808B1FFF737FF0023B1
:1047BC00C4E90133236010BD38B504460D460068CA
:1047CC000131FFF733FF10B1C4E90005012038BDFA
:1047DC0010B50368044623B143688B4201D3012012
:1047EC0010BD2046FFF7E8FF0028F9D0A368002B86
:1047FC00F5D122681370F2E737B50D4611460192D8
:10480C000446FFF7E5FF019A28B92046FFF7C9FFD8
:10481C00204603B030BDA2602946206800F0B5FFE9
:10482C002268A3680021D154F2E7002313B5C0E934
:10483C00003304468360037341B108460191FFF7CE
:10484C00E7FB019902462046FFF7D6FF204602B04F
:10485C0010BD00000EB470B587B00BAD044655F812
:10486C00042B01922B46052104A80395FFF7E6FEC5
:10487C000B4906462046FFF7D8FF31462046FFF786
:10488C00A7FF206830B1019A03952B46711CFFF7E6
:10489C00D5FEA060204607B0BDE8704003B070475D
:1048AC0048590B0013B50B460246D0E900016C4683
:1048BC0084E8030093E8030082E8030094E8030013
:1048CC0083E8030002B010BD024800230360FFF729
:1048DC00F1BC00BFDCE60320F8B506460D468F1888
:1048EC000024BD420CD0336815F8011B9B68304680
:1048FC009847031E01DB1C44F3E7002C08BF1C4641
:10490C002046F8BD13B50446084659B10191FFF78E
:10491C007FFB23680199DB680246204602B0BDE8A4
:10492C001040184702B010BD03689B68184730B59B
:10493C008BB00023012A8DF8243098BF0A2209ACD1
:10494C000D46B1FBF2F101FB125303F0FF03092BEF
:10495C0094BF30333733DBB2AA4204F8013DEFD9B0
:10496C002146FFF7CFFF0BB030BD0000014B024AD0
:10497C001A607047E0E6032098590B00024B1A6846
:10498C00024B1A60704700BF44E60320E4E60320A4
:10499C000021FFF787BD0000014B00229A60704791
:1049AC00E8E60320014B1860704700BF48E603207F
:1049BC0008B50B4B43B100F0FFFB03681B6998472C
:1049CC00002801DDAFF30080064B43B100F06EFE12
:1049DC0003681B699847002801DDAFF3008008BD10
:1049EC00000000000000000008B5FFF7E1FFFFF732
:1049FC0059FC014B186008BD40E703200548064AE6
:104A0C00064908B5121A00F0C0FE054B054A1A609B
:104A1C0008BD00BF00F4032004F40320545C0B0019
:104A2C0000F403201E1C279A07B5002300931A4696
:104A3C006FF07701FFF758FD03B05DF804FB000041
:104A4C0007B543880A2B08D0502B0BD1094B1B6898
:104A5C004BB103B05DF804EB1847FFF7E5FF03B06B
:104A6C005DF804FB002300931A466FF07701FFF703
:104A7C003BFDF4E7FCE6032010B512480021FFF7DC
:104A8C00FDFD114B1A68114B9A42114B0CBF0122C0
:104A9C0000221A7001D0FFF7B1FFFFF7FBFB0446B1
:104AAC0000F08AFE0B4B13B12046AFF300800021BF
:104ABC000848FFF7A3FDBDE8104007480021FFF7A9
:104ACC0009BD00BFB1490B0000F403201E1C279A3E
:104ADC00F8E60320000000004D4A0B007047002050
:104AEC00704710B510210446FFF7D9FA204610BDC7
:104AFC0008B5FFF7F6FF08BD30B500224FF69C74E1
:104B0C00026084808D888C800C68858004600A60CB
:104B1C0030BD10B504460068FFF780FD204610BD7F
:104B2C0038B5C468F4B12378022B03D104F10C001E
:104B3C00FFF7EFFF656835B12846FFF70FFE102130
:104B4C002846FFF7ACFAA56835B12846FFF706FEF4
:104B5C0010212846FFF7A3FA20461421BDE838405F
:104B6C00FFF79DBA38BD0B6803604B68436013B107
:104B7C005A6801325A60704737B5044668460D468C
:104B8C00FFF7F1FF009B019A23606260002301A8EC
:104B9C0001930093FFF78DFA35B1281DFFF789FAC1
:104BAC0008212846FFF77BFA204603B030BD826807
:104BBC0010B50AB900F0E0FDBDE81040C368184715
:104BCC0008B5006800F11001FFF7F1FF08BD82681D
:104BDC0010B50AB900F0D0FDBDE81040C368184705
:104BEC0008B5006800F11001FFF7F1FF08BD0000E7
:104BFC0038B500230446036010200D46FFF74BFA2E
:104C0C0028B10123C0E90133024B0360C560206069
:104C1C00204638BDC0590B0038B5002383608B6823
:104C2C0004460D462BB102229847EB68E360AB6853
:104C3C00A360204638BD0000F0B589B00468684612
:104C4C00FFF75AFF4FF00203D4E84F2F002A03D18D
:104C5C00C4E8413F0029F7D125D104F10C05694680
:104C6C002846FFF749FFBFF35B8F012363700020D9
:104C7C0004F10803BFF35B8F53E8006F43E80002B5
:104C8C00002AF9D1BFF35B8F6EB1FFF713FC78B13B
:104C9C0029463046FFF78BFF3046FFF75FFD1021AA
:104CAC003046FFF7FCF96846FFF733FF09B0F0BD5B
:104CBC00314602A8FFF7B0FFE068B4F9105008B114
:104CCC0000F0A8FD06901020ADF81C50FFF7E3F99A
:104CDC000546E8B1002787601820FFF7DCF9044689
:104CEC0088B10146876002A8FFF7DCFD049BA2682F
:104CFC00A360059B049206A9E268E36004F110002E
:104D0C000592FFF7F9FE084BEB60084B2C60AB608B
:104D1C0006A8FFF7FEFE02A8FFF720FD0022294699
:104D2C000348FFF7CFFBB7E7CD4B0B00514E0B0001
:104D3C00B5520B002DE9F04F8BB005469DF850A0F5
:104D4C000F4690469946FFF749FC07AE834638BBA1
:104D5C004FF62E73059005A93046ADF81830FFF7C5
:104D6C00CBFE1420FFF797F9044648B102230370D9
:104D7C000123C0E901BB437031460C30FFF7BCFE88
:104D8C002846214640F8044BFFF732FF3046FFF728
:104D9C00C0FE05A8FFF7BDFE28460BB0BDE8F08F9E
:104DAC000C2300241420CDE908440793FFF773F972
:104DBC00014618B1C0E901440470447004A8039181
:104DCC00FFF716FF1E4B08930820FFF764F9044603
:104DDC0010B103A9FFF7C7FE00965FFA8AF34A46A3
:104DEC00414638460994FFF701FCB8B9039B5B7840
:104DFC0003F0FF0293B94FF69C7305A903A8059223
:104E0C00ADF81830FFF718FF05A8FFF782FE05A8CC
:104E1C000999FFF7B1FE06A8FFF74BF903A905A8FE
:104E2C00FFF7A1FE059B069A2B606A60002306A87B
:104E3C0006930593FFF73DF904A8FFF73AF9ABE7A2
:104E4C00CD4E0B00012AF8B5054603D10B68036063
:104E5C000020F8BD022A10D0032AF9D10468002CD6
:104E6C00F6D004F11000FFF754FE2046FFF776FC55
:104E7C0018212046FFF713F9EAE718200E68FFF710
:104E8C000AF9044650B13146FFF7C6FE3069B6F94F
:104E9C00147008B100F0BEFC2061A7822C60D7E72B
:104EAC0038B5002383608B6804460D462BB1022273
:104EBC009847EB68E360AB68A360204638BD000000
:104ECC00F0B589B004460D4601A81146FFF754FE13
:104EDC00A4B124B21DB1284600F09CFC054601A8E3
:104EEC0003A90395ADF81040FFF7A6FE03A8FFF742
:104EFC0010FE02A8FFF7DDF809B0F0BD019D0123FB
:104F0C00D5E84F2F002A03D1C5E8413F0029F7D13E
:104F1C00EFD12B73BFF35B8F6B702B1DBFF35B8FCC
:104F2C0053E8006F43E80042002AF9D1BFF35B8FCE
:104F3C00002EDED02046FFF7BDFA074660B105F122
:104F4C000C013046FFF743FE3046FFF707FC1021FB
:104F5C003046FFF7A4F8CCE7314603A8FFF7A0FFD3
:104F6C002B7B8DF81C301020FFF795F80546D0B13F
:104F7C0087601420FFF78FF8044678B187600146EC
:104F8C0003A8FFF78FFC059BA268A360069B059204
:104F9C00E268E3609DF81C3006922374064BEB60CC
:104FAC00064B2C60AB6003A8FFF7D8FB0022294608
:104FBC000348FFF787FAC7E7ED4B0B00D14F0B0007
:104FCC00B5520B00012A70B5044603D10B6803607F
:104FDC00002070BD022A0CD0032AF9D10468002CE1
:104FEC00F6D02046FFF7BAFB14212046FFF757F8FE
:104FFC00EEE714200E68FFF74EF8054620B1314657
:10500C00FFF74EFF337C2B742560E1E7704710B53A
:10501C0018210446FFF743F8204610BDF0B5037D78
:10502C00062B8DB00E4600F104074FF0000412D091
:10503C0000F1080515F8011D0A223046FFF777FC30
:10504C00AF42044419D0002CF4D02E213046FFF787
:10505C006BFC0444EEE72F236A4639460A208DF890
:10506C000040FFF72FF96846FEF7D2FF336802467F
:10507C00DB68694630469847044620460DB0F0BDC3
:10508C0010B5054B0446112240F8043B002100F0FA
:10509C008AFB204610BD00BFDC590B000346074AB3
:1050AC0010B543F8042B01F1100251F8044B43F8EE
:1050BC00044B9142F9D10A781A7010BDDC590B00DF
:1050CC0010B59DF8084044EA032343EA024242EA41
:1050DC00016104234160037510BD000007B5064B48
:1050EC000360CB7800938B784A780978FFF7E8FF58
:1050FC0003B05DF804FB00BFDC590B004174704732
:10510C007047704708B50021007CFFF7ABF940EA07
:10511C00E07008BD08B50121007CFFF7A3F940EA57
:10512C00E07008BD08B5007CFFF794F920EAE07048
:10513C0008BD08B5007CFFF785F920EAE07008BDD2
:10514C0013B50446007C0191FFF784F900280199FE
:10515C0001DC607C20B1207CFFF78CF920EAE07048
:10516C0002B010BD007CFFF78DB910B514210446B8
:10517C00FEF795FF204610BD10B54FF47A73044628
:10518C0008460021C4E90113044B23600123207459
:10519C0063741146FFF746F9204610BDF0590B0019
:1051AC00007C0022FFF746B910B5142204460021FA
:1051BC0000F0F9FA204610BD10B50F4C88B003A8CA
:1051CC00FFF7F2FF2178BFF35B8F11F001010FD1D4
:1051DC0020460191FEF765FF019948B103AA0748E3
:1051EC00FFF7CAFF2046FEF761FF054800F0C7FA3B
:1051FC00024808B010BD00BF00E7032004E70320FD
:10520C000D510B0070474174704708B5007CFFF7D7
:10521C0091F820EAE07008BD08B5007CFFF762F851
:10522C0020EAE07008BD08B5007CFFF76BF840EA97
:10523C00E07008BD08B5007CFFF75CF840EAE07050
:10524C0008BD007CFFF766B837B5457C04462DB128
:10525C00207C03B0BDE83040FFF73CB8007C0191E6
:10526C00FFF768F800280199F2DC284603B030BD3E
:10527C0010B514210446FEF712FF204610BD0000A5
:10528C0010B54FF47A730446084611460022C4E95F
:10529C000123044B2360012320746374FFF752F83D
:1052AC00204610BD205A0B0010B5836804460BB97C
:1052BC0000F062FAC3689847A3681BB10322214629
:1052CC002046984720461021BDE81040FEF7E7BE67
:1052DC007047F8B5064615460C468F18BC4206D0EA
:1052EC00336814F8011B9B6830469847F6E728464C
:1052FC00F8BD007C0022FFF72DB8007C0021FFF7E1
:10530C0031B8007C0021FFF735B8007C0021FFF795
:10531C0039B8007C0021FFF73DB810B514210446C4
:10532C00FEF7BDFE204610BD38B5044615464FF4B9
:10533C007A730022C4E90123094B217408462360C7
:10534C002946FFF737F8BF3008D16B69DB0705D565
:10535C006868FFF763F9E868FFF760F9204638BD25
:10536C00505A0B00002240681146FFF7DFB80022AC
:10537C0040681146FFF7FAB8002240681146FFF763
:10538C0005B940680022FFF7F9B84068002281F0A7
:10539C000101FFF7E3B8002340681A461946FFF7EE
:1053AC00D5B8002340681A461946FFF7C7B8002243
:1053BC0040681146FFF7AAB8406800220221FFF7A7
:1053CC00ADB8002340681A46FFF798B8024B042288
:1053DC005A60024A1A60704718E70320785A0B008B
:1053EC00002340681A46FFF789B840680022022162
:1053FC00FFF794B8002240681146FFF787B80022E7
:10540C0040681146FFF792B8002340681A461946C7
:10541C00FFF794B8002340681A461946FFF796B870
:10542C0040680021FFF7BAB840680021FFF7BEB80A
:10543C004068002281F00101FFF790B8406800221B
:10544C00FFF79CB8002240681146FFF79FB8002276
:10545C0040681146FFF78AB840680021FFF7B6B8DC
:10546C002DE9F04395B014460D460746FFF708FEAC
:10547C0000211C220DA8009100F095F940230C93FB
:10548C0020466B460CAA0021FEF7D4FE04460028E9
:10549C004BD1024601216868FFF748F8022180468B
:1054AC0022466868FFF742F8009E81462146002E8E
:1054BC003BD0002939D17368022B03D00A2B11D0B1
:1054CC00F669F4E7B8F1000FFAD0716906A8043157
:1054DC0007ADFFF703FE0FCD3C1D0FC42B682370E7
:1054EC004146EDE7B9F1000FEAD07469102201A82A
:1054FC0000F059F906238DF8143001AD04F10803BE
:10550C001834186859682A4603C20833A342154652
:10551C00F7D101A906A807ADFFF7C0FD0FCD3C1DC3
:10552C000FC42B6823704946CAE70098FEF77AFE31
:10553C00384615B0BDE8F083033802289ABF024BF9
:10554C0053F8200001487047B45A0B0020E70320A1
:10555C0008B500224068FFF731F8BDE80840FFF7B6
:10556C00EBBF0000024B034A1A6000225A607047DE
:10557C0020E70320C85A0B00232813B502D90020BA
:10558C0002B010BDA0F10B03022B1AD8174C2178D6
:10559C00BFF35B8F11F001010BD120460191FEF797
:1055AC0080FD019928B11248FFF7B4F82046FEF7A8
:1055BC007DFD0F4B1878FEF71DFF0028DFD1012071
:1055CC00DEE7012809D800F0B1F80021007CFEF7D5
:1055DC00E9FE80F00100C0B2D2E709380128EED80C
:1055EC0000F064F8007CFEF79DFEF2E7B0E60320C5
:1055FC00B4E60320232838B504460D460AD8FF2903
:10560C0008D0FFF7B9FF28B129462046BDE838403D
:10561C00FEF720BE38BD38B504460D46FEF722FE17
:10562C00FF2810D0062804D84D2323FA00F0C30716
:10563C0009D42046FFF7A0FF28B129462046BDE833
:10564C003840FEF717BE38BD0D2810B504469CBF78
:10565C000E34A4B22046FFF78FFF50B10321204631
:10566C00FEF7F0FD032804D12046BDE81040FEF7FC
:10567C0009BE002010BD704738B5044614252A46D3
:10568C00002100F090F82580402507492581284607
:10569C00258200F06FF804496060284600F06AF833
:1056AC00E060204638BD00BF045B0B0030B50E4DEA
:1056BC002978BFF35B8F11F0010487B011D1284614
:1056CC00FEF7EFFC68B101A8FFF7D6FF01AA21464F
:1056DC000648FFF7D5FD2846FEF7E8FC044800F025
:1056EC004EF8024807B030BD28E703202CE7032012
:1056FC0083560B007047000038B50A4B036001233A
:10570C00044643610849202000F034F820256060ED
:10571C000549A560284600F02DF8C4E9030520468C
:10572C0038BD00BF18000100045B0B0030B50E4DF6
:10573C002978BFF35B8F11F0010487B011D1284693
:10574C00FEF7AFFC68B16846FFF7D6FF6A46214604
:10575C000648FFF7E9FD2846FEF7A8FC044800F0D0
:10576C000EF8024807B030BD44E7032048E7032099
:10577C0001570B00FEF791BC08B5FEF767FF00233D
:10578C0001461A46184600F063B80A44914200F1EB
:10579C00FF3300D1704710B511F8014B03F8014FDE
:1057AC009142F9D110BD02440346934200D1704797
:1057BC0003F8011BF9E7000038B5104B1D68AB6B03
:1057CC000446B3B91820FEF721FF0246A86320B99E
:1057DC000B4B0C484221FEF749FF0B490B4BC0E920
:1057EC0000130B4B83600B23838100210120C2E942
:1057FC000401AB6B00221C615A6138BD48E60320E2
:10580C00055B0B001C5B0B000E33CDAB34126DE64D
:10581C00ECDE0500024B0146186800F003B800BF2F
:10582C0048E6032037B5044608460D46FEF7F0FB64
:10583C00421C114620460192FEF710FF044618B197
:10584C00019A2946FFF7A1FF204603B030BD0000A6
:10585C002DE9F843DFF8B8800646D8F800001F465B
:10586C000D46914600F056F8254B1C6834B9254C72
:10587C001C60254B13B11B68C4F8883063681F2B60
:10588C0007DDD8F8000000F047F84FF0FF30BDE816
:10589C00F8834EB3D4F8880088B91C4B23B9D8F8D8
:1058AC00000000F038F8F0E74FF48470FEF7AEFE1D
:1058BC000028F4D00023C0E94033C4F888006368A2
:1058CC0040F8239001229A4000EB8301D0F800317C
:1058DC001343C0F80031022EC1F8807002BFD0F81B
:1058EC0004311343C0F804316368D8F800005A1C23
:1058FC000233626044F8235000F00EF80020C6E733
:10590C00E8E703205CE703200000000019460B00C9
:10591C00ACE6032070477047704700002D400B0029
:10592C0069400B0091400B0095400B0000000000FB
:10593C00256400504F54305F7265733100504F54E2
:10594C00305F726573320000000000000000000040
:10595C00F7460B00ED460B00E3460B00D9460B0057
:10596C00CD460B00C1460B002D540B0035540B00DB
:10597C00B5460B00AD460B00A3460B0099460B0039
:10598C005D550B0065540B006D540B00617070007D
:10599C0025592D256D2D25645425483A254D3A253C
:1059AC0053257A0061736374696D65000000000013
:1059BC0000000000E94A0B00EF4A0B002D4B0B00D6
:1059CC00FD4A0B00EB4A0B00000000000000000039
:1059DC0029500B0019500B001B500B00000000004D
:1059EC00000000000F510B0077510B004D510B00C4
:1059FC00E5480B003F510B0011510B0021510B00DE
:105A0C0071510B0031510B0009510B0000000000CB
:105A1C000000000011520B007D520B0055520B0080
:105A2C00E5480B0025520B0041520B0033520B0082
:105A3C004F520B0013520B0017520B0000000000CA
:105A4C0000000000DD520B0027530B00FF520B002F
:105A5C00DF520B0007530B000F530B0017530B00B7
:105A6C001F530B000000000000000000CF530B0080
:105A7C00C5530B00BB530B0071530B00AF530B0002
:105A8C00A3530B002D540B0035540B0097530B00F4
:105A9C008F530B0085530B007B530B005D550B0094
:105AAC0065540B006D540B00C4E6032018E703206B
:105ABC0020E703200000000000000000ED530B0065
:105ACC00F7530B0001540B000B540B0015540B0037
:105ADC0021540B002D540B0035540B003D540B007E
:105AEC0049540B0051540B005B540B005D550B00DB
:105AFC0065540B006D540B00005245454E54206DFF
:105B0C00616C6C6F632073756363656564656400B9
:105B1C002F6D6E742F776F726B73706163652F7757
:105B2C006F726B73706163652F4743432D31302D5A
:105B3C00706970656C696E652F6A656E6B696E73E2
:105B4C002D4743432D31302D706970656C696E653E
:105B5C002D34385F32303230313132345F313630BF
:105B6C00363138303634312F7372632F6E65776C63
:105B7C0069622F6E65776C69622F6C6962632F7333
:105B8C0074646C69622F72616E642E630000000095
:105B9C0025420B0001470B007D470B00D5480B003D
:105BAC0079490B0089490B00A5490B00D9530B000F
:045BBC0071550B0014
:105BC000040000001400000003000000474E5500D0
:105BD000E887F27AFA575532F808019F082991456B
:045BE000D11ABD60B9
:105BE40080000000B0590B004CE6032000000000C8
:105BF40000000000000000000000000000000000A1
:105C04000000000000000000000000000000000090
:105C14000000000000000000000000000000000080
:105C24000000000000000000000000000000000070
:105C34000000000000000000000000000000000060
:105C4400000000000000000000000000ECE703205A
:045C5400000000004C
:105C5E0000000102030405060708090A0B0C0D0ECD
:105C6E000F101112131415161718191A1B1C1D1EBE
:045C7E001F202800BB
:045C8200785634120A
:04000003B000401CED
:00000001FF
