:02000002B0004C
:1040000000400B007A6F0B00000006000C00050258
:084010000401E01500000000AE
:0440180040690B00F0
:10401C0081F0004102E000BF83F0004330B54FEA6D
:10402C0041044FEA430594EA050F08BF90EA020FDA
:10403C001FBF54EA000C55EA020C7FEA645C7FEA6D
:10404C00655C00F0E2804FEA5454D4EB5555B8BF90
:10405C006D420CDD2C4480EA020281EA030382EA01
:10406C00000083EA010180EA020281EA0303362D93
:10407C0088BF30BD11F0004F4FEA01314FF4801C66
:10408C004CEA113102D0404261EB410113F0004F78
:10409C004FEA03334CEA133302D0524263EB43032F
:1040AC0094EA050F00F0A780A4F10104D5F1200ECD
:1040BC000DDB02FA0EFC22FA05F2801841F1000128
:1040CC0003FA0EF2801843FA05F359410EE0A5F1FC
:1040DC0020050EF1200E012A03FA0EFC28BF4CF02D
:1040EC00020C43FA05F3C01851EBE37101F00045E3
:1040FC0007D54FF0000EDCF1000C7EEB00006EEBF0
:10410C000101B1F5801F1BD3B1F5001F0CD3490879
:10411C005FEA30004FEA3C0C04F101044FEA4452D0
:10412C0012F5800F80F09A80BCF1004F08BF5FEA57
:10413C00500C50F1000041EB045141EA050130BD37
:10414C005FEA4C0C404141EB0101013C28BFB1F549
:10415C00801FE9D291F0000F04BF01460020B1FA94
:10416C0081F308BF2033A3F10B03B3F120020CDA67
:10417C000C3208DD02F1140CC2F10C0201FA0CF045
:10418C0021FA02F10CE002F11402D8BFC2F1200CAA
:10419C0001FA02F120FA0CFCDCBF41EA0C01904060
:1041AC00E41AA2BF01EB0451294330BD6FEA0404A9
:1041BC001F3C1CDA0C340EDC04F11404C4F1200294
:1041CC0020FA04F001FA02F340EA030021FA04F3A6
:1041DC0045EA030130BDC4F10C04C4F1200220FAFD
:1041EC0002F001FA04F340EA0300294630BD21FA3B
:1041FC0004F0294630BD94F0000F83F4801306BF01
:10420C0081F480110134013D4EE77FEA645C18BFF4
:10421C007FEA655C29D094EA050F08BF90EA020F8B
:10422C0005D054EA000C04BF1946104630BD91EA83
:10423C00030F1EBF0021002030BD5FEA545C05D186
:10424C004000494128BF41F0004130BD14F58004C5
:10425C003CBF01F5801130BD01F0004545F0FE4139
:10426C0041F470014FF0000030BD7FEA645C1ABF6E
:10427C00194610467FEA655C1CBF0B46024650EAA5
:10428C00013406BF52EA033591EA030F41F40021D1
:10429C0030BD00BF90F0000F04BF0021704730B557
:1042AC004FF4806404F132044FF000054FF000012C
:1042BC0050E700BF90F0000F04BF0021704730B5ED
:1042CC004FF4806404F1320410F0004548BF4042C2
:1042DC004FF000013EE700BF42004FEAE2014FEA17
:1042EC0031014FEA02701FBF12F07F4393F07F4FF2
:1042FC0081F06051704732F07F4208BF704793F0F5
:10430C007F4F04BF41F40021704730B54FF4607407
:10431C0001F0004521F000411CE700BF50EA01020A
:10432C0008BF704730B54FF000050AE050EA0102B3
:10433C0008BF704730B511F0004502D5404261EB23
:10434C0041014FF4806404F132045FEA915C3FF464
:10435C00D8AE4FF003025FEADC0C18BF03325FEA01
:10436C00DC0C18BF033202EBDC02C2F1200300FAB2
:10437C0003FC20FA02F001FA03FE40EA0E0021FAD7
:10438C0002F11444BDE600BF10F8012B11F8013BFB
:10439C00012A28BF9A42F7D0D01A7047034613F867
:1043AC00012B002AFBD1181A0138704709480A4919
:1043BC00884208B505D0094A824202D0121A02F08E
:1043CC0007FA0748074A0021121A02F00FFA0148AF
:1043DC0008BD00BF98E50320BC6E0B0028E6032047
:1043EC0028E60320F0E7032070B5074E074C01F0D8
:1043FC00DBF8A41BA4080025AC4200D170BD56F814
:10440C00043B98470135F7E7746E0B00986E0B0070
:10441C0000F060B808B500F0EBF8BDE8084001F01A
:10442C007BB800F0B3BC00F0B1BC00F0B7BC00002E
:10443C0008B5034A03490C2000F0ECFBFEE700BF73
:10444C0061490B0054690B000078B0FA80F0400908
:10445C0070470123037070470EB403B503AB012101
:10446C0053F8042B019300F00AFE02B05DF804EB44
:10447C0003B0704710B54368013B0446436063B911
:10448C0003689B689847A368013BA3602BB923681A
:10449C002046DB68BDE81040184710BD002240687C
:1044AC00114600F0EBBB000010B5044B0360044652
:1044BC00806908B1FFF7DEFF204610BD0C6C0B00C5
:1044CC0010B50446FFF7F0FF20461C21FFF7ADFFA7
:1044DC00204610BD30B53F4B8BB01888012101F040
:1044EC0061FE3D48002319461A46406800F0CEFB99
:1044FC0001F07CF94FF4165101F068F9002000F03E
:10450C0039FA43F698250446002000F033FA001BD4
:10451C0061F10001A84271F1000307D201F066F9C4
:10452C0001F058F910B900F021FCEDE701F05EF94B
:10453C0001F050F901F05AF9284900F078FD01F02A
:10454C0055F904462448FFF7A9FF811C04A801F083
:10455C00A5F804A9684600F00DFD009A20492046F4
:10456C00FFF77AFF684600F0ABFC01F03FF9044618
:10457C001948FFF793FF00F1130104A801F08EF81E
:10458C0004A9684600F0F6FC009A16492046FFF78D
:10459C0063FF684600F094FC01F028F904460E48CD
:1045AC00FFF77CFF00F1240104A801F077F804A9BF
:1045BC00684600F0DFFC009A0B492046FFF74CFFE1
:1045CC00684600F07DFC09480BB0BDE8304000F0B7
:1045DC009BBE00BF98E503200CE70320B0690B00DD
:1045EC0069690B0074690B0082690B0084E6032077
:1045FC002DE9F04F2DED028B8A4CDFF878A2DFF815
:10460C0078929FED898ADFF874828DB0264600255A
:10461C0027465AF8040B80B201F0EEFD07EE900A23
:10462C00F8EEE77AF7EE008A88EE270A7F4BC9F896
:10463C0000000135D8ED007A30EE680A20EE270A2A
:10464C0083ED000A01F082FF794B83ED000A794B70
:10465C00D3ED007A784B93ED007A784BA7EE807A05
:10466C00032DD3ED007A764B60EE277A67EE807AD5
:10467C00A7EE807AC8EE877A9FED727AC3ED007A46
:10468C0077EEC77A704B96ED007AC3ED007A77EE31
:10469C00877AE6EC017ABCD16C4E3368632B40F31D
:1046AC009280DFF8DC916A4DDFF8D8B19FED698A12
:1046BC00DFED698A4FF00008D6ED007AD4ED006A80
:1046CC00F8EEE77A86EEA77AA4EC017A01F08EF880
:1046DC00824654F8040CFFF7FFFD4246CDE9000179
:1046EC0059465046FFF7B8FEB9EC017A54ED017A01
:1046FC002B7877EEC77AF5EEC07AF1EE10FA3EDD44
:10470C00012B39D0F4EE687AF1EE10FA34D504EDC1
:10471C00017A08F1010854F8043C49F8043CB8F15A
:10472C00030F05F10105C7D14C4C0121208801F084
:10473C004AFDC82000F0E6FC2088494C002101F01D
:10474C0042FD204601F099FB00284CD001F04EF8B8
:10475C004449DFF8348100F06AFC204601F01CFB70
:10476C00A8B1204601F026F9054601F03FF8EAB25F
:10477C004146FFF771FEF0E701232B70C9E723B127
:10478C00F4EE487AF1EE10FAC1DC0023F5E7364C72
:10479C002449204641F288330C2200F0D7FC64688F
:1047AC003CB1039001F022F8039B30492246FFF7FD
:1047BC0053FE42F2602000F0A5FC00233B607B60BE
:1047CC00BB600023336033680A200133336000F090
:1047DC0099FC01F00BF826490DB0BDEC028BBDE83D
:1047EC00F04F00F011BC204905A800F00FFE069B0D
:1047FC006360079BA360089BE360099B23610A9B92
:10480C000B9D6361A3699D4208D015B16B680133A0
:10481C006B60A06908B1FFF72DFEA56105A8FFF735
:10482C0043FECAE73CE6032000F07F4528E6032060
:10483C0080E60320A4E50320A0E50320A8E50320DF
:10484C0038E603203393884358E603207CE60320A4
:10485C0054E60320CDCC4CBECDCC4C3E98E5032089
:10486C0060E60320AB690B0084E60320D1690B00E2
:10487C00166A0B00ACE503205CE603209CE50320E4
:10488C0048E603208F690B00BA690B0010B5094B81
:10489C00094A9A600024C3E90044012000F0CAF9D7
:1048AC0022460648172100F0DFFCBDE81040044802
:1048BC0001F01CBB2CE603200000FFFF84E6032064
:1048CC0060E6032008B5024B1B689B68019308BD8A
:1048DC006802030008B5024B1B68DB68019308BD36
:1048EC006802030008B5024B1B685B68019308BDA6
:1048FC002C02030008B5024B1B689B68019308BD92
:10490C002C02030008B5024B1B68DB68019308BD41
:10491C002C02030008B5024B1B681B69019308BDF0
:10492C002C02030008B5024B1B681B6B019308BDDE
:10493C002C02030008B5024B1B685B69019308BD90
:10494C006C02030008B5024B1B685B68019308BD41
:10495C001802030008B5024B1B68DB68019308BD05
:10496C001802030008B5024B1B685B69019308BD74
:10497C001802030008B5024B1B68DB6D019308BDE0
:10498C001802030008B5024B1B68DB69019308BDD4
:10499C004802030008B5024B1B685B6C019308BD11
:1049AC004802030008B5024B1B685B69019308BD04
:1049BC006402030008B5024B1B681B6A019308BD17
:1049CC006402030008B5024B1B689B6A019308BD87
:1049DC006402030008B5024B1B68DB68019308BD39
:1049EC003C02030008B5024B1B681B69019308BD10
:1049FC003C02030008B5024B1B685B69019308BDC0
:104A0C003C02030008B5024B1B689B69019308BD6F
:104A1C003C02030008B5024B1B68DB69019308BD1F
:104A2C003C02030008B5024B1B681B6A019308BDCE
:104A3C003C02030008B5024B1B689B6A019308BD3E
:104A4C003C02030008B5024B1B681B6C019308BDAC
:104A5C003C02030008B5024B1B681B6A019308BD9E
:104A6C002802030008B5024B1B685B6A019308BD62
:104A7C002802030008B5024B1B689B6A019308BD12
:104A8C002802030008B5024B1B68DB6A019308BDC2
:104A9C002802030008B5024B1B681B6B019308BD71
:104AAC002802030008B5024B1B685B6B019308BD21
:104ABC002802030008B5024B1B681B6C019308BD50
:104ACC002802030008B5024B1B681B68019308BD44
:104ADC003802030008B5024B1B685B68019308BDE4
:104AEC003802030008B5024B1B68DB68019308BD54
:104AFC003802030008B5024B1B689B69019308BD83
:104B0C003802030008B5024B1B68DB69019308BD32
:104B1C003802030008B5024B1B681B6A019308BDE1
:104B2C003802030008B5024B1B685B6A019308BD91
:104B3C003802030008B5024B1B689B6A019308BD41
:104B4C003802030008B5024B1B681B6B019308BDB0
:104B5C003802030008B5024B1B689B6B019308BD20
:104B6C003802030008B5024B1B68DB6B019308BDD0
:104B7C003802030008B5024B1B68DB69019308BDC2
:104B8C003002030008B5024B1B681B6A019308BD79
:104B9C003002030008B5024B1B681B68019308BD6B
:104BAC004C02030008B5024B1B685B68019308BDFF
:104BBC004C02030008B5024B1B681B69019308BD2E
:104BCC004C02030008B5024B1B685B69019308BDDE
:104BDC004C02030008B5024B1B689B69019308BD8E
:104BEC004C02030008B5024B1B68DB69019308BD3E
:104BFC004C02030008B5024B1B681B6A019308BDED
:104C0C004C02030008B5024B1B689B6A019308BD5C
:104C1C004C02030008B5024B1B685B6B019308BD8B
:104C2C006002030008B5024B1B681B6D019308BDA5
:104C3C006002030008B5024B1B685B68019308BD5A
:104C4C002002030008B5024B1B685B69019308BD89
:104C5C002002030008B5034B1B68D3F8883001937E
:104C6C0008BD00002002030008B5034B1B68D3F8F5
:104C7C009430019308BD00002002030008B5024BDC
:104C8C001B681B68019308BD4002030008B5024B6A
:104C9C001B685B68019308BD4002030008B5024B1A
:104CAC001B689B68019308BD4002030008B5024BCA
:104CBC001B68DB68019308BD4002030008B5024B7A
:104CCC001B681B69019308BD4002030008B5024B29
:104CDC001B685B69019308BD4002030008B5024BD9
:104CEC001B689B69019308BD4002030008B5024B89
:104CFC001B68DB69019308BD4002030008B5024B39
:104D0C001B681B6A019308BD4002030008B5024BE7
:104D1C001B681B6B019308BD4002030008B5024BD6
:104D2C001B685B6B019308BD4002030008B5024B86
:104D3C001B681B6C019308BD4002030008B5024BB5
:104D4C001B685B6C019308BD4002030008B5024B65
:104D5C001B685B6D019308BD4002030008B5024B54
:104D6C001B689B6D019308BD4002030008B5024B04
:104D7C001B689B68019308BD4402030008B5024BF5
:104D8C001B68DB6B019308BD4402030008B5024BA2
:104D9C001B681B68019308BD1C02030008B5024B7D
:104DAC001B685B68019308BD1C02030008B5024B2D
:104DBC001B689B68019308BD1C02030008B5024BDD
:104DCC001B685B6A019308BD1C02030008B5024B0B
:104DDC001B68DB6B019308BD1C02030008B5024B7A
:104DEC001B681B6C019308BD1C02030008B5024B29
:104DFC001B685B6C019308BD1C0203000022406819
:104E0C001146FFF77BBF002240681146FFF786BFB3
:104E1C0040680022FFF77ABF4068002281F0010150
:104E2C00FFF764BF002340681A461946FFF756BFC8
:104E3C00002340681A461946FFF748BF0022406815
:104E4C001146FFF73BBF002240681146FFF726BF13
:104E5C00406800220221FFF729BF002340681A4650
:104E6C00FFF714BF024B03225A60024A1A607047C4
:104E7C00B4E60320206A0B0010B5044608462170E6
:104E8C00FFF778FE00236360204610BD054B02221D
:104E9C001A60054B054A9A600020C3E90000FFF731
:104EAC00C9BE00BFC8E60320BCE603200000FFFF1C
:104EBC00704710B50C210446FFF7B7FA204610BD19
:104ECC0010B504460068FFF769FF204610BD38B5E1
:104EDC0004460D4600680131FFF768FF10B1C4E9C4
:104EEC000005012038BD10B50368044623B14368A2
:104EFC008B4201D3012010BD2046FFF7E8FF0028AC
:104F0C00F9D0A368002BF5D122681370F2E770B5C5
:104F1C0005460E4609B9002070BD6AB18468144478
:104F2C002146FFF7E0FF0028F5D02868AB68314632
:104F3C00184401F091FCAC600120EDE738B5044653
:104F4C0080688568FFF7E3FFA3689868401B38BD4D
:104F5C0007B50023ADF8043001228DF8041001A927
:104F6C00FFF7D5FF03B05DF804FB08B58068FFF7C9
:104F7C00EFFF08BD30B585B000230D460293C0E9A4
:104F8C000033836003731421064B01930446039092
:104F9C00FFF7A9FF2B6801A91B68284698472046F4
:104FAC0005B030BD646A0B00024800230360FFF7B4
:104FBC00F1BC00BFCCE60320F8B506460D468F18B1
:104FCC000024BD420CD0336815F8011B9B68304699
:104FDC009847031E01DB1C44F3E7002C08BF1C465A
:104FEC002046F8BD13B50446084659B10191FFF7A8
:104FFC00D5F923680199DB680246204602B0BDE86A
:10500C001040184702B010BD08B5FFF7EBFF08BD04
:10501C0003689B68184738B50D210546FFF7F8FF64
:10502C000A2104462846FFF7F3FF204438BD38B563
:10503C000546FFF7D7FF04462846FFF7ECFF204450
:10504C0038BD30B58BB00023012A8DF8243098BFC1
:10505C000A2209AC0D46B1FBF2F101FB125303F02D
:10506C00FF03092B94BF30333733DBB2AA4204F869
:10507C00013DEFD92146FFF7B5FF0BB030BD2DE94F
:10508C00F04186B000AF05460E46381D142114467B
:10509C003B60FFF793FE13280ED8391D2846FFF707
:1050AC00A1FF04461EB12846FFF7B5FF0444204675
:1050BC001837BD46BDE8F08100F1080323F0070363
:1050CC00E846ADEB030D2246411C3B686846FFF7F2
:1050DC0075FE69462846FFF785FF0446C546E1E79D
:1050EC00014B024A1A607047D0E603207C6A0B0021
:1050FC00024B1A68024B1A60704700BFB8E50320D8
:10510C00D4E603200021FFF79DBD13B513460268BA
:10511C008DF8071094690DF107010122A04702B028
:10512C0010BD07B503688DF80710DB6801220DF17F
:10513C000701984703B05DF804FB10B403689C6941
:10514C004FF0FF33A4465DF8044B604710B504469E
:10515C000020A06104F1140000F068FCA3696360F6
:10516C0010BD30B587B0044601AD684600F0CCFAEE
:10517C000FCD04340FC42B68237007B030BD70B54D
:10518C000C4694B01C25064600F07AFA2A460021FB
:10519C000DA801F02BFB636901950DA9186801AAF4
:1051AC00FFF7A0FC014620BB9DF83530022B04D143
:1051BC000EA93046FFF7D5FF1BE00A2B19D102AC24
:1051CC001122204601F012FBDDE90F23134313D00B
:1051DC000FAB0FCB08AD84E80F000623214607A8C0
:1051EC008DF8183000F05AFA0FCD341D0FC42B680F
:1051FC002370304614B070BD4FF6FF70119DFFF751
:10520C00D9FB8542E4D112A9D3E738B54B6843608A
:10521C008B688360CB68C3600B6903614B69436126
:10522C008D6983699D42044608D015B16B680133C2
:10523C006B60A06908B1FFF71DF9A56138BD0000CE
:10524C0010B5034B03600446FFF72EF9204610BD42
:10525C00CC6A0B0010B50446FFF7F2FF20461C2168
:10526C00FFF7E3F8204610BDF8B5124B036000259C
:10527C004FF0FF360181C2604560066131460E4F2A
:10528C000446143000F00AFE29462846FFF77AFB44
:10529C003B6843B91C20FFF7C4F8054610B13146F2
:1052AC0000F0FCFD3D6000210120FFF76BFB204668
:1052BC00F8BD00BF186B0B00D8E6032010B50446F0
:1052CC00143000F0C3FD2069FFF71CFC4FF0FF33D6
:1052DC00236110BD38B50546054B45F8143B044613
:1052EC00FFF7ECFF2846FFF7DFF8204638BD00BF7C
:1052FC00186B0B0010B50446FFF7ECFF204630216D
:10530C00FFF793F8204610BD70B504468CB0FFF73C
:10531C00D5FF2369002B5CDA1C22002105A801F0C3
:10532C0065FA40F61C232089ADF81430FFF74AFBD0
:10533C000622ADF8160001210A20FFF70BFC00280D
:10534C00206106DA20460025FFF7B8FF28460CB08E
:10535C0070BD012304260293009602AB324640F640
:10536C00FF71FFF7C7FB05460028EBD1024603216E
:10537C002069FFF7F7FB021EE4DB206942F0010213
:10538C003146FFF7EFFB0028DCDBE068A0B103A996
:10539C00C0B20395ADF81050FFF7CCFA0028D1D16C
:1053AC0006230093206903AB41F20B0240F6FF7118
:1053BC00FFF7A0FB0028C5D120691C2205A9FFF727
:1053CC0089FB0028BED120690521FFF7ABFB002823
:1053DC00B8D10125BAE700004B684360094B036064
:1053EC008B688360CB68C3600B690361064B0360F9
:1053FC004B6943618B69836113B15A6801325A60FE
:10540C00704700BFA46A0B000C6C0B002DE9F04137
:10541C000B69002B96B006460C4603DA0B6808465F
:10542C001B6998472569002D04F114070CDA244BED
:10543C0038461968FFF7E9FE39463046FFF7CCFFCE
:10544C00304616B0BDE8F0814FF01C0842460021F2
:10545C0008A801F0CBF908A901AA2846CDF80480C8
:10546C00FFF730FB011E12DA154B38461968FFF7AF
:10547C00CCFEFFF7ABFC03680B2BDDD0FFF7A6FCD3
:10548C0003680B2BD8D02046FFF718FFD4E70FA8E2
:10549C0000F004FD03AD0B4B149C0F930FA902A855
:1054AC00FFF76DFE0FCD8C340FC42B68237038467C
:1054BC000FA9FFF7AAFE0FA8FFF7C2FEBCE700BFBB
:1054CC00D8E60320CC6A0B00014B00229A6070478F
:1054DC00DCE60320014B1860704700BFC0E50320D9
:1054EC0008B50B4B43B100F081F903681B69984771
:1054FC00002801DDAFF30080064B43B100F0AEFE97
:10550C0003681B699847002801DDAFF3008008BDD4
:10551C00000000000000000008B5FFF7E1FFFFF7F6
:10552C0021FA014B186008BD40E703200548064AE4
:10553C00064908B5121A01F04BF9054B054A1A60D9
:10554C0008BD00BF00F4032004F403204C6F0B00D3
:10555C0000F403201E1C279A07B5002300931A465B
:10556C006FF07701FFF780FB03B05DF804FB0000E0
:10557C0007B543880A2B08D0502B0BD1094B1B685D
:10558C004BB103B05DF804EB1847FFF7E5FF03B030
:10559C005DF804FB002300931A466FF07701FFF7C8
:1055AC0063FBF4E7F0E6032010B512480021FFF787
:1055BC001DFC114B1A68114B9A42114B0CBF012266
:1055CC0000221A7001D0FFF7B1FFFFF7BBF90446B8
:1055DC0001F014F90B4B13B12046AFF300800021FE
:1055EC000848FFF7CBFBBDE8104007480021FFF748
:1055FC0031BB00BFE1540B0000F403201E1C279AA2
:10560C00ECE60320000000007D550B00704710B540
:10561C0018210446FEF709FF204610BDF0B5037DA6
:10562C00062B8DB00E4600F104074FF0000412D08B
:10563C0000F1080515F8011D0A223046FFF701FD9F
:10564C00AF42044419D0002CF4D02E213046FFF781
:10565C00DFFC0444EEE72F236A4639460A208DF816
:10566C000040FFF79FF96846FEF798FE3368024644
:10567C00DB68694630469847044620460DB0F0BDBD
:10568C0010B5054B0446112240F8043B002101F0F3
:10569C00ADF8204610BD00BF3C6B0B000346074A1B
:1056AC0010B543F8042B01F1100251F8044B43F8E8
:1056BC00044B9142F9D10A781A7010BD3C6B0B0067
:1056CC00037D042B04D14068003818BF01207047BB
:1056DC00062B07D143683BB983682BB9C3681BB948
:1056EC000069F1E7002070470120704710B59DF864
:1056FC00084044EA032343EA024242EA01610423DC
:10570C004160037510BD000007B5064B0360CB78F4
:10571C0000938B784A780978FFF7E8FF03B05DF8BF
:10572C0004FB00BF3C6B0B00417470477047704723
:10573C0008B50021007CFFF74DFA40EAE07008BD87
:10574C0008B50121007CFFF745FA40EAE07008BD7E
:10575C0008B5007CFFF736FA20EAE07008BD08B502
:10576C00007CFFF727FA20EAE07008BD13B5044669
:10577C00007C0191FFF726FA0028019901DC607C7E
:10578C0020B1207CFFF72EFA20EAE07002B010BDA9
:10579C00007CFFF72FBA10B514210446FEF745FE26
:1057AC00204610BD10B54FF47A730446084600210C
:1057BC00C4E90113044B2360012320746374114664
:1057CC00FFF7E8F9204610BD506B0B00007C00225F
:1057DC00FFF7E8B9007CFFF715BA10B514220446A0
:1057EC00002101F003F8204610BD000010B50F4C4D
:1057FC0088B003A8FFF7F1FF2178BFF35B8F11F09E
:10580C0001010FD120460191FEF71EFE019948B10E
:10581C0003AA0748FFF7C6FF2046FEF71AFE054805
:10582C0000F0D0FF024808B010BD00BFF4E6032022
:10583C00F8E6032039570B0070474174704708B5E0
:10584C00007CFFF7F7F820EAE07008BD08B5007C93
:10585C00FFF7C8F820EAE07008BD08B5007CFFF738
:10586C00D1F840EAE07008BD08B5007CFFF7C2F83B
:10587C0040EAE07008BD007CFFF7CCB837B5457C3A
:10588C0004462DB1207C03B0BDE83040FFF7A2B830
:10589C00007C0191FFF7CEF800280199F2DC284634
:1058AC0003B030BD10B514210446FEF7BEFD2046F2
:1058BC0010BD000010B54FF47A730446084611462B
:1058CC000022C4E90123044B236001232074637478
:1058DC00FFF7B8F8204610BD806B0B007047F8B589
:1058EC00064615460C468F18BC4206D0336814F891
:1058FC00011B9B6830469847F6E72846F8BD007CAC
:10590C000022FFF7A7B8007C0021FFF7ABB8007CA2
:10591C000021FFF7AFB8007C0021FFF7B3B8007C83
:10592C000021FFF7B7B810B514210446FEF77DFD32
:10593C00204610BD38B5044615464FF47A73002244
:10594C00C4E90123094B2174084623602946FFF75B
:10595C00B1F8BF3008D16B69DB0705D56868FFF774
:10596C001DFAE868FFF71AFA204638BDB06B0B0039
:10597C0013B503688DF80710DC6B01224FF0FF3371
:10598C000DF10701A04702B010BD10B40368DC6B29
:10599C004FF0FF33A4465DF8044B604713B5134634
:1059AC0002688DF80710D46B0DF107010122A04796
:1059BC0002B010BD10B54369B3F88620B3F884303B
:1059CC009A42044608D06369B3F88420511CA3F8AA
:1059DC0084101344187910BD03681B69984700287C
:1059EC00F1D14FF0FF30F6E7704743691868C043B8
:1059FC00C00F704770470000064B994210B500F17C
:105A0C000C0405D0084600F08FFC002808BF0024C9
:105A1C00204610BD746A0B0010B5AC210446FEF78D
:105A2C0004FD204610BDAC21FEF7FFBC2DE9F04172
:105A3C004FF0000886B01C46C0F8048005460E46A0
:105A4C0017464146102202A800F0D0FE631C09D074
:105A5C004FF47A73B4FBF3F203FB1244CDE9022842
:105A6C005C430494686910230093006802AB41F214
:105A7C00050240F6FF71FFF73DF8002807DAFFF743
:105A8C00A5F903686B60002006B0BDE8F081686979
:105A9C00002300683A463146FFF754F8031EEEDB4C
:105AAC001846F1E730B587B0044601AD6846FFF7FC
:105ABC002BFE0FCD04340FC42B68237007B030BD00
:105ACC0070B54D69054B04468C3544F8043B0646CD
:105ADC000FCD0FC42B682370304670BD3C6B0B0090
:105AEC002DE9F0439846036893B00D460024DB6A19
:105AFC0006461746984728466B4622462146009490
:105B0C00FEF7E8FE0546002863D1009B002B4BD026
:105B1C005B69002B48D006A8FFF7B2FD009B5C69BF
:105B2C006378022B04D1211D06A8FFF7BBFF26E0EA
:105B3C000A2B24D11122294601A800F057FEA36894
:105B4C00002B38D004F108030DF1040C183418683C
:105B5C005968624603C20833A3429446F7D1062320
:105B6C0001A90CA88DF81430FFF798FD0DF1340C39
:105B7C00BCE80F0007AC0FC4DCF80030237006A89B
:105B8C00FFF79EFD80B1336807ADD3F82090124B20
:105B9C000C930FCD0DAC0FC42B6823703A464346C3
:105BAC000CA93046C84705460098FEF78BFE2846E0
:105BBC0013B0BDE8F083E368002BC3D14FF6FF7040
:105BCC00D4F81090FEF7F6FE8145BBD104F1140118
:105BDC00AAE72546E8E700BF3C6B0B0038B54369E4
:105BEC001A68002A054610DAB3F88620B3F8843018
:105BFC009A420AD103681B699847044628B92B6856
:105C0C002846DB6A9847204638BD0120FCE710B5D2
:105C1C004369B3F88620B3F884309A42044605D021
:105C2C006369B3F884201344187910BD03681B69A9
:105C3C0098470028F4D14FF0FF30F6E7F8B54369E8
:105C4C001746B3F88620B3F884309A4205460E46C0
:105C5C0016D06969B1F88430B1F88640E41ABC42B8
:105C6C0028BF3C46043322461944304600F0B0FDB0
:105C7C006A69B2F884302344A2F884302046F8BD17
:105C8C0003681B6998470028E3D14FF0FF34F5E710
:105C9C0042690023A2F884304269A2F8863070472A
:105CAC002DE9F0411F4603680C46DB6A8AB00546B5
:105CBC0016469847237DD5F81480042B0CBF022080
:105CCC000A2006220121FEF745FFC8F800006B6987
:105CDC001B68002B08DA2B682846DB6A00249847DF
:105CEC0020460AB0BDE8F0812846FFF7D1FFB7B1D6
:105CFC00002303A9F8B20393ADF81030FEF71AFE97
:105D0C000028E8D1686906230093006803AB41F2D0
:105D1C000B0240F6FF71FEF7EDFE0028DBD11C22D2
:105D2C00002103A800F062FD237D042B1DD14FF44C
:105D3C0007733046ADF80C30FEF744FEADF80E009C
:105D4C006068FEF737FE04906B691C22186803A983
:105D5C00FEF7E0FE0028BED104340FCC6D698C3503
:105D6C000FC523682B700124BAE740F61C2330467C
:105D7C00ADF80C30FEF726FE05AEADF80E00231D77
:105D8C0004F1140718685968324603C20833BB4241
:105D9C001646F7D1D8E7000030B54269B2F8863024
:105DAC008BB004462BB1B2F884209A4201D1FFF794
:105DBC006FFF61690868002818DBB1F886507F2DE9
:105DCC0014D804310823C5F180022944FEF7B2FE31
:105DDC00002813DD6369B3F886200AB9A3F8842080
:105DEC006369B3F886201044A3F886006369B3F89E
:105DFC008600B3F88430C01A0BB030BDFEF7E6FF56
:105E0C0003680B2BF2D0FEF7E1FF03680B2BEDD0F0
:105E1C0020230025CDE90235FEF7D8FF0368019356
:105E2C00084B0949009302AA2B463220FEF7FAFED2
:105E3C0063691868FEF766FE63694FF0FF321A60FB
:105E4C00D4E700BFD76B0B00D06B0B0010B54369C8
:105E5C0004461868002801DBFEF754FE63694FF016
:105E6C00FF321A606069112200218C3000F0BEFCF8
:105E7C002046BDE81040FFF70BBF43691868C043CC
:105E8C00C00F704710B5002304460160C0F8843081
:105E9C008830FFF7F5FB204610BD000073B50023DA
:105EAC004FF47A72C0E901320E4A03610260436119
:105EBC000446AC200191FEF7B4FA051E05F10C0660
:105ECC0008D00123C5E90133074B01992B603046FB
:105EDC00FFF7D8FF2046C4E90565FFF7D9FE02B0ED
:105EEC0070BD00BF0C6C0B00F06B0B0010B54FF0CD
:105EFC00FF310446FFF7D2FF204610BD10B5044613
:105F0C000068002801DBFEF7FDFD204610BD0C30BB
:105F1C00FFF7F4BF002240681146FEF7CFBE002207
:105F2C0040681146FEF7EABE002240681146FEF7B3
:105F3C00F5BE40680022FEF7E9BE4068002281F001
:105F4C000101FEF7D3BE002340681A461946FEF73E
:105F5C00C5BE002340681A461946FEF7B7BE00229C
:105F6C0040681146FEF79ABE406800220221FEF7F7
:105F7C009DBE002340681A46FEF788BE024B0422E1
:105F8C005A60024A1A6070470CE70320586C0B00E9
:105F9C00002340681A46FEF779BE406800220221B1
:105FAC00FEF784BE002240681146FEF777BE002241
:105FBC0040681146FEF782BE002340681A46194617
:105FCC00FEF784BE002340681A461946FEF786BECB
:105FDC0040680021FEF7AABE40680021FEF7AEBE65
:105FEC004068002281F00101FEF780BE406800226B
:105FFC00FEF78CBE002240681146FEF78FBE0022D1
:10600C0040681146FEF77ABE40680021FEF7A6BE36
:10601C002DE9F04395B014460D460746FFF730FBCB
:10602C0000211C220DA8009100F0E0FB40230C93F2
:10603C0020466B460CAA0021FEF74CFC04460028B7
:10604C004BD1024601216868FEF738FE02218046DA
:10605C0022466868FEF732FE009E81462146002EDD
:10606C003BD0002939D17368022B03D00A2B11D0F5
:10607C00F669F4E7B8F1000FFAD0716906A804319B
:10608C0007ADFFF741FB0FCD3C1D0FC42B682370F0
:10609C004146EDE7B9F1000FEAD07469102201A86E
:1060AC0000F0A4FB06238DF8143001AD04F10803B5
:1060BC001834186859682A4603C20833A342154697
:1060CC00F7D101A906A807ADFFF7E8FA0FCD3C1DE3
:1060DC000FC42B6823704946CAE70098FEF7F2FB01
:1060EC00384615B0BDE8F083033802289ABF024B3E
:1060FC0053F8200001487047946C0B0014E7032000
:10610C0008B500224068FEF721FEBDE80840FFF705
:10611C00EBBF0000024B034A1A6000225A60704722
:10612C0014E70320A86C0B00232813B502D9002018
:10613C0002B010BDA0F10B03022B1AD8174C21781A
:10614C00BFF35B8F11F001010BD120460191FEF7DB
:10615C007BF9019928B11248FEF78EFE2046FEF716
:10616C0078F90F4B1878FEF70DFD0028DFD10120D0
:10617C00DEE7012809D800F0B1F80021007CFEF719
:10618C0091FC80F00100C0B2D2E709380128EED8AA
:10619C0000F064F8007CFEF745FCF2E71CE70320F6
:1061AC0020E70320232838B504460D460AD8FF29DA
:1061BC0008D0FFF7B9FF28B129462046BDE8384082
:1061CC00FEF798BB38BD38B504460D46FEF79AFB72
:1061DC00FF2810D0062804D84D2323FA00F0C3075B
:1061EC0009D42046FFF7A0FF28B129462046BDE878
:1061FC003840FEF78FBB38BD0D2810B504469CBF48
:10620C000E34A4B22046FFF78FFF50B10321204675
:10621C00FEF768FB032804D12046BDE81040FEF7CA
:10622C0081BB002010BD704738B5044614252A46A2
:10623C00002100F0DBFA25804025074925812846FE
:10624C00258200F06FF804496060284600F06AF877
:10625C00E060204638BD00BFE46C0B0030B50E4D3D
:10626C002978BFF35B8F11F0010487B011D1284658
:10627C00FEF7EAF868B101A8FFF7D6FF01AA21469C
:10628C000648FFF717FB2846FEF7E3F8044800F032
:10629C0099FA024807B030BD28E703202CE7032009
:1062AC0033620B007047000038B50A4B03600123C2
:1062BC00044643610849202000F034F82025606032
:1062CC000549A560284600F02DF8C4E903052046D1
:1062DC0038BD00BF18000100E46C0B0030B50E4D4A
:1062EC002978BFF35B8F11F0010487B011D12846D8
:1062FC00FEF7AAF868B16846FFF7D6FF6A46214652
:10630C000648FFF717FB2846FEF7A3F8044800F0F1
:10631C0059FA024807B030BD44E7032048E7032090
:10632C00B1620B00FEF77FB8014900F0F9B800BF6D
:10633C00006D0B007FB500241023CDE902340368F7
:10634C0015469E6912686B46CDE90044B0479DF82E
:10635C00043003F00603062B03BF009B2B600120C7
:10636C00204604B070BD0098904214BF0120062056
:10637C007047000010B5034B0360044600F0CDF8E5
:10638C00204610BD406D0B0010B50446FFF7F2FF20
:10639C0020460821FEF749F8204610BD2DE9F041B2
:1063AC001F46DDE90834DDF8188098450646154689
:1063BC0007D1079900F0B4F818B165710020BDE859
:1063CC00F0813946304600F0ABF80028F6D00123B6
:1063DC00C4F800802571A371F0E738B515461C464A
:1063EC0000F09EF820B10823E3600623256023719A
:1063FC0038BD73B505460C4601921E4600F090F868
:10640C0050B9032E08D82368019A5B6929462046A7
:10641C0002B0BDE87040184702B070BD10B5034B18
:10642C0003600446FFF7A6FF204610BDA06D0B00CD
:10643C0010B50446FFF7F2FF20460C21FDF7F5FFDF
:10644C00204610BDF7B5089F974205460E461446E8
:10645C000AD0A86802680897156A31462246AC46ED
:10646C0003B0BDE8F04060471946019300F058F8BE
:10647C00019B0028EDD0062003B0F0BD2DE9F14FB3
:10648C000D461946DDE90A4BDDE90CA68146174697
:10649C00984600F045F890B1002D3460377109DB57
:1064AC0061198A450CBF06210121B171002001B090
:1064BC00BDE8F08F0235F9D10123B371F6E75445ED
:1064CC0006D15946484600F02BF808B17771EDE734
:1064DC00D9F808000368CDE90CA6CDE90A4BDC69B4
:1064EC003A4643462946A44601B0BDE8F04F604702
:1064FC002DE9F04107460C4615461E46FFF76DFF89
:10650C0048B9B86803689F692A4633462146BC4699
:10651C00BDE8F0416047BDE8F0817047002070474E
:10652C00814208B50ED0406803782A2B0CD04968FC
:10653C000B782A2B08BF0131FDF726FFB0FA80F04B
:10654C00400908BD0120FCE70020FAE708B52DED55
:10655C00028BB0EE408A00F02FF8144B93F9003008
:10656C00013314D0B4EE488AF1EE10FA0FD6B5EE22
:10657C00C08AF1EE10FA0ADCB5EE408AF1EE10FAA0
:10658C0008D1FEF723FC22239FED090A0360BDEC22
:10659C00028B08BDFEF71AFCBDEC028B03462122D0
:1065AC001A600448BDE8084000F006B9BCE50320B9
:1065BC00000080FFDC6D0B0010EE103A33F000424F
:1065CC002ED0002B33DBB3F1FF4F40DAB3F5000FC5
:1065DC0034DB4FF0000C6848C3F31601084400F498
:1065EC00000282F07E520A43DB1500EE102A7F3B3C
:1065FC00624A634401F10F0CF7EE007A0CEA0202D6
:10660C0030EE670A03EBD05322BBB5EE400AF1EE35
:10661C0010FA60D1002B40F092809FED590A704720
:10662C009FED587ADFED567A87EE270A704770EEA9
:10663C00407A9FED537A87EE870A7047DFED527AE6
:10664C0060EE277A6FF0180C17EE903AC3E730EE35
:10665C00000A7047F0EE007A70EE277A07EE103AD7
:10666C0080EE274A4948C1F55712084402F52272B8
:10667C000243002A9FED463ADFED464ADFED465ACB
:10668C00DFED463A9FED465ADFED467ADFED466A7E
:10669C0024EE046AF8EEC72A26EE067AE7EE034AE1
:1066AC00A7EE235AE4EE875AE5EE076AE5EE877A01
:1066BC0067EE867AE6EE877A2ADDB6EE007A20EE71
:1066CC00077A27EE007A4BBB77EE877AA7EEC47A6F
:1066DC0030EE470A7047B6EE007ADFED346AF0EE22
:1066EC00477AE0EE667A20EE007A27EE277A002BC6
:1066FC00EED007EE903A9FED2E6ADFED2E6AF8EEA3
:10670C00E77AA7EEC67A37EE400A97EEA60A7047EC
:10671C0013BB70EE677AA7EEC40A7047DFED246AEC
:10672C009FED246A77EE877A62EEA66AE7EE846ABA
:10673C0037EE667A37EE400A92EE860A704707EE1D
:10674C00903A9FED1B0A9FED1B7AF8EEE77A27EE45
:10675C00800AA7EE870A70479FED157ADFED156A60
:10676C0070EE677A27EE627AA7EE847A37EE400AEB
:10677C0092EEA60A704700BF20FB4A00F0FF7F0094
:10678C0000000000000000CC0000004C305CCFFF8B
:10679C009788173E25333A3E2549923E4FD01C3EF2
:1067AC00298E633EABAA2A3FCDCCCC3EABAAAA3EE7
:1067BC00D1F717378071313F9FED010A704700BF49
:1067CC000000C07F002301461A46184600F04CB862
:1067DC000A44914200F1FF3300D1704710B511F813
:1067EC00014B03F8014F9142F9D110BD024403460D
:1067FC00934200D1704703F8011BF9E738B5104BF1
:10680C001D68AB6B0446B3B91820FEF7BFFA0246FD
:10681C00A86320B90B4B0C484221FEF7DFFA0B4959
:10682C000B4BC0E900130B4B83600B2383810021BE
:10683C000120C2E90401AB6B00221C615A6138BD16
:10684C00C0E50320DD6D0B00F46D0B000E33CDABFA
:10685C0034126DE6ECDE0500034611F8012B03F84B
:10686C00012B002AF9D170472DE9F843DFF8B880E5
:10687C000646D8F800001F460D46914600F056F823
:10688C00254B1C6834B9254C1C60254B13B11B6877
:10689C00C4F8883063681F2B07DDD8F8000000F0BF
:1068AC0047F84FF0FF30BDE8F8834EB3D4F88800BA
:1068BC0088B91C4B23B9D8F8000000F038F8F0E781
:1068CC004FF48470FEF762FA0028F4D00023C0E97C
:1068DC004033C4F88800636840F8239001229A4042
:1068EC0000EB8301D0F800311343C0F80031022EC5
:1068FC00C1F8807002BFD0F804311343C0F80431E2
:10690C006368D8F800005A1C0233626044F82350C4
:10691C0000F00EF80020C6E7E8E703205CE7032050
:10692C0000000000994D0B0024E6032070477047CF
:10693C0070470000B9430B00F5430B001D440B00DE
:10694C0021440B000000000043616C6C206F6E2032
:10695C0070757265207669727475616C006C6F630A
:10696C00616C49503D2573007375626E65744D61A1
:10697C00736B3D2573006761746577617949503D90
:10698C002573000A54656D706572617475726520AB
:10699C00253032693A2025332E3166C2B043000AC5
:1069AC0054435020636F6E6E65637465640054438A
:1069BC005020627974652072656365697665643A06
:1069CC002025690A005443505365727665723A3A31
:1069DC0077726974652829206661696C6564202862
:1069EC006572726F72203D202564292C206E756DA6
:1069FC00626572206F6620627974657320777269A4
:106A0C007474656E3A2025640A002E0000000000A4
:106A1C0000000000674E0B005D4E0B00534E0B0048
:106A2C00494E0B003D4E0B00314E0B00DD5F0B0051
:106A3C00E55F0B00254E0B001D4E0B00134E0B009B
:106A4C00094E0B000D610B0015600B001D600B0057
:106A5C000000000000000000BD4E0B00BF4E0B00FC
:106A6C00774F0B00494F0B000000000000000000A6
:106A7C006170700025592D256D2D25645425483ADB
:106A8C00254D3A2553257A0061736374696D650051
:106A9C0000000000000000000000000000000000EA
:106AAC003D440B00C54F0B003D440B003D440B0017
:106ABC003D440B003D440B000000000000000000B2
:106ACC004D520B0061520B007D590B0097590B0076
:106ADC00A55D0B00C1590B001B5C0B00F5590B009D
:106AEC00AD5C0B00ED5A0B00495C0B00595E0B00C2
:106AFC00E95B0B00F7590B00A9590B00395A0B0035
:106B0C008B510B000000000000000000E1520B0054
:106B1C0001530B002F510B0047510B0015530B0069
:106B2C0017510B0059510B00000000000000000031
:106B3C0029560B0019560B001B560B0000000000C9
:106B4C00000000003B570B00A3570B0079570B00BC
:106B5C00C54F0B006B570B003D570B004D570B00EF
:106B6C009D570B005D570B0035570B0000000000C4
:106B7C000000000045580B00B1580B0089580B0061
:106B8C00C54F0B0059580B0075580B0067580B007C
:106B9C0083580B0047580B004B580B0000000000AB
:106BAC0000000000E9580B0033590B000B590B0087
:106BBC00EB580B0013590B001B590B0023590B00FE
:106BCC002B590B00776972696E67007265637620CA
:106BDC006572726F72203D20256400000000000079
:106BEC0000000000015A0B00255A0B001B5F0B0024
:106BFC00335A0B00055A0B00000000000000000087
:106C0C00B5440B00CD440B007D590B0097590B007C
:106C1C00A55D0B00C1590B001B5C0B00F5590B005B
:106C2C00AD5C0B00ED5A0B00495C0B00595E0B0080
:106C3C00E95B0B00F7590B00A9590B00395A0B00F3
:106C4C00CD5A0B0000000000000000007F5F0B001D
:106C5C00755F0B006B5F0B00215F0B005F5F0B0020
:106C6C00535F0B00DD5F0B00E55F0B00475F0B0014
:106C7C003F5F0B00355F0B002B5F0B000D610B00B2
:106C8C0015600B001D600B00B4E603200CE703201D
:106C9C0014E7032000000000000000009D5F0B00C3
:106CAC00A75F0B00B15F0B00BB5F0B00C55F0B0058
:106CBC00D15F0B00DD5F0B00E55F0B00ED5F0B00A0
:106CCC00F95F0B0001600B000B600B000D610B00FA
:106CDC0015600B001D600B0000537431395F53704D
:106CEC005F6D616B655F7368617265645F7461672A
:106CFC0000000000406D0B00E56C0B00A06D0B005C
:106D0C00146D0B00C46D0B004E31305F5F637878EF
:106D1C00616269763131375F5F636C6173735F7485
:106D2C007970655F696E666F4500000000000000B9
:106D3C00086D0B0081630B0095630B0029650B003C
:106D4C0029650B00FF630B0041630B00E7630B002D
:106D5C00A9630B0073630B00A06D0B00706D0B002F
:106D6C00086D0B004E31305F5F6378786162697635
:106D7C003132305F5F73695F636C6173735F747919
:106D8C0070655F696E666F450000000000000000D2
:106D9C00646D0B0029640B003D640B0029650B002E
:106DAC0029650B00FF630B0041630B00FD640B00B6
:106DBC0089640B0051640B00406D0B00CC6D0B0013
:106DCC00537439747970655F696E666F00000000EA
:106DDC00005245454E54206D616C6C6F6320737589
:106DEC0063636565646564002F6D6E742F776F72D5
:106DFC006B73706163652F776F726B737061636512
:106E0C002F4743432D31302D706970656C696E6569
:106E1C002F6A656E6B696E732D4743432D31302D90
:106E2C00706970656C696E652D34385F3230323044
:106E3C00313132345F313630363138303634312FEF
:106E4C007372632F6E65776C69622F6E65776C69F0
:106E5C00622F6C6962632F7374646C69622F726148
:106E6C006E642E630000000099480B00714E0B00FD
:106E7C00994E0B00B54F0B00ED500B00FD500B0065
:0C6E8C00D5540B00895F0B0021610B0046
:106E9800040000001400000003000000474E5500E5
:106EA8006C75FFB12679DC6D7F8E33A2B722286816
:046EB800E093C0E7BC
:106EBC000700000000401C46197F933AFC1C7639F1
:106ECC0004F6B7331300000012000000110000009C
:106EDC00946A0B00FF000000C4E5032000000000D2
:106EEC000000000000000000000000000000000096
:106EFC000000000000000000000000000000000086
:106F0C000000000000000000000000000000000075
:106F1C000000000000000000000000000000000065
:106F2C000000000000000000000000000000000055
:106F3C00000000000000000000000000ECE703204F
:046F4C000000000041
:106F560000000102030405060708090A0B0C0D0EC2
:106F66000F101112131415161718191A1B1C1D1EB3
:046F76001F202800B0
:046F7A0078563412FF
:04000003B000401CED
:00000001FF
